{
  "hex" : "01000000020ad5dc92c13bef692aeeadd3bb3d2350c395da717cd85f09c50da1e72e103ad9000000006a473044022012bd004c74817bd29cd743f20e63a2762e1a34a21e9518e5474e796c1a20f3d702204a4befc137f4fd4f4eff10e8c8aec805188685c48aef647e5e9f97d5ac86f4db012102baac16deee6f4f7fed972b9ec4ea1c88d577fd28cf8cd668055b950b95bd63fcffffffff30e3dabf527c6f29de945e835ec6139ce4c9f8254952257114fd34c70b3bcd60010000006b483045022100c23eac32789b77e2c0b1030b4d7841e1753e3025b58d3ef52da6aad98b9212cc022056eebdbd8afe2ffd3fd231ad2b4fbfd8dbd368ab9eab9b362e53f2027a7728a6012103545451cae461ae8fe733c9ee06b69f7c95b44159477024ab040f381aee0285a0ffffffff02f87a6b00000000001976a914c824d7e6b8370817ae459d2f79f6cd5cb260ecef88ac08151f00000000001976a9144592cc94d60571949b834708505d0095ec07d2f588ac00000000",
  "txid" : "05587f30d146126f5d81ff17c24177645669df3d75f69b50ae21d24e5ef162e3",
  "version" : 1,
  "locktime" : 0,
  "vin" : [
    {
      "txid" : "d93a102ee7a10dc5095fd87c71da95c350233dbbd3adee2a69ef3bc192dcd50a",
      "vout" : 0,
      "scriptSig" : {
        "asm" : "3044022012bd004c74817bd29cd743f20e63a2762e1a34a21e9518e5474e796c1a20f3d702204a4befc137f4fd4f4eff10e8c8aec805188685c48aef647e5e9f97d5ac86f4db01 02baac16deee6f4f7fed972b9ec4ea1c88d577fd28cf8cd668055b950b95bd63fc",
        "hex" : "473044022012bd004c74817bd29cd743f20e63a2762e1a34a21e9518e5474e796c1a20f3d702204a4befc137f4fd4f4eff10e8c8aec805188685c48aef647e5e9f97d5ac86f4db012102baac16deee6f4f7fed972b9ec4ea1c88d577fd28cf8cd668055b950b95bd63fc"
      },
      "sequence" : 4294967295
    },
    {
      "txid" : "60cd3b0bc734fd147125524925f8c9e49c13c65e835e94de296f7c52bfdae330",
      "vout" : 1,
      "scriptSig" : {
        "asm" : "3045022100c23eac32789b77e2c0b1030b4d7841e1753e3025b58d3ef52da6aad98b9212cc022056eebdbd8afe2ffd3fd231ad2b4fbfd8dbd368ab9eab9b362e53f2027a7728a601 03545451cae461ae8fe733c9ee06b69f7c95b44159477024ab040f381aee0285a0",
        "hex" : "483045022100c23eac32789b77e2c0b1030b4d7841e1753e3025b58d3ef52da6aad98b9212cc022056eebdbd8afe2ffd3fd231ad2b4fbfd8dbd368ab9eab9b362e53f2027a7728a6012103545451cae461ae8fe733c9ee06b69f7c95b44159477024ab040f381aee0285a0"
      },
      "sequence" : 4294967295
    }
  ],
  "vout" : [
    {
      "value" : 0.07043832,
      "n" : 0,
      "scriptPubKey" : {
        "asm" : "OP_DUP OP_HASH160 c824d7e6b8370817ae459d2f79f6cd5cb260ecef OP_EQUALVERIFY OP_CHECKSIG",
        "hex" : "76a914c824d7e6b8370817ae459d2f79f6cd5cb260ecef88ac",
        "reqSigs" : 1,
        "type" : "pubkeyhash",
        "addresses" : [
          "mymDaLnWcq9aQF7inPs1aED9cPmcqVrjD2"
        ]
      }
    },
    {
      "value" : 0.02037000,
      "n" : 1,
      "scriptPubKey" : {
        "asm" : "OP_DUP OP_HASH160 4592cc94d60571949b834708505d0095ec07d2f5 OP_EQUALVERIFY OP_CHECKSIG",
        "hex" : "76a9144592cc94d60571949b834708505d0095ec07d2f588ac",
        "reqSigs" : 1,
        "type" : "pubkeyhash",
        "addresses" : [
          "mmrpn5EXNNYb3o7LqwApUPAhgGUQQyAv6t"
        ]
      }
    }
  ],
  "blockhash" : "00000000000036ffc3e2e3c247bab16e151be44a34207f822ffd7c7b879541cb",
  "confirmations" : 1061,
  "time" : 1456381016,
  "blocktime" : 1456381016
}