{
  "hex": "010000000173419d5f11b2c83836361600ddb5db2915fbc6278a793afb0aa881d34587772f000000006a47304402203a8047f3ca1bf21fbceab91f2f8822e206b63f5723848945b16c14cc40b0c3b8022019820f54407de38cc8a91d324c616ce5ec662e857067d759061d57bafa2cd6e60121034a750b912f603eb2bd06fc1489d79f096e5428a42d1efeb88909371e85b77327ffffffff0222572e00000000001976a91447557afeabd2857467f9d0725b923dcf38271d1288aca0860100000000001976a914a36418afb89ea7903c55c797af650dad7241470488ac00000000",
  "txid": "0d2c42e9a118731742d5a9ef75785b553a8c11b18ae920b720d9e9a3c53790a5",
  "size": 225,
  "version": 1,
  "locktime": 0,
  "vin": [
    {
      "txid": "2f778745d381a80afb3a798a27c6fb1529dbb5dd0016363638c8b2115f9d4173",
      "vout": 0,
      "scriptSig": {
        "asm": "304402203a8047f3ca1bf21fbceab91f2f8822e206b63f5723848945b16c14cc40b0c3b8022019820f54407de38cc8a91d324c616ce5ec662e857067d759061d57bafa2cd6e6[ALL] 034a750b912f603eb2bd06fc1489d79f096e5428a42d1efeb88909371e85b77327",
        "hex": "47304402203a8047f3ca1bf21fbceab91f2f8822e206b63f5723848945b16c14cc40b0c3b8022019820f54407de38cc8a91d324c616ce5ec662e857067d759061d57bafa2cd6e60121034a750b912f603eb2bd06fc1489d79f096e5428a42d1efeb88909371e85b77327"
      },
      "sequence": 4294967295
    }
  ],
  "vout": [
    {
      "value": 0.03036962,
      "n": 0,
      "scriptPubKey": {
        "asm": "OP_DUP OP_HASH160 47557afeabd2857467f9d0725b923dcf38271d12 OP_EQUALVERIFY OP_CHECKSIG",
        "hex": "76a91447557afeabd2857467f9d0725b923dcf38271d1288ac",
        "reqSigs": 1,
        "type": "pubkeyhash",
        "addresses": [
          "mn28fxcZWwedpetNS7747XJjUYNJJ9yiLc"
        ]
      }
    },
    {
      "value": 0.00100000,
      "n": 1,
      "scriptPubKey": {
        "asm": "OP_DUP OP_HASH160 a36418afb89ea7903c55c797af650dad72414704 OP_EQUALVERIFY OP_CHECKSIG",
        "hex": "76a914a36418afb89ea7903c55c797af650dad7241470488ac",
        "reqSigs": 1,
        "type": "pubkeyhash",
        "addresses": [
          "mvQtM9KrSFR7vCWHrbkV9XyVikwkNL74QE"
        ]
      }
    }
  ],
  "blockhash": "0000000000000ead84f4da2abe6222e7102294e91de96d1e403577504ada6c65",
  "confirmations": 44357,
  "time": 1456224083,
  "blocktime": 1456224083
}