{
  "hex": "01000000014cabbcf651d948e8f75954bd9ebcc0b04e392c36520caea8b9c1926f9b140c30000000006b483045022100d40e4b4b90ea1a0e49ee166f6b66f86ee8f3386cdf659a50db56acddf0f55c2502200eb8affe348d2d2afcb3774cf48b2a4ca69baae695f32754c67d7d3ec60954180121034a750b912f603eb2bd06fc1489d79f096e5428a42d1efeb88909371e85b77327ffffffff0222572e00000000001976a91447557afeabd2857467f9d0725b923dcf38271d1288aca0860100000000001976a9143a35285c351a7d4d5109ca8a81571f267963258288ac00000000",
  "txid": "134d50aa002e7734d0640614fbdeda5dd399f55ba1649618592d71796e1089f8",
  "size": 226,
  "version": 1,
  "locktime": 0,
  "vin": [
    {
      "txid": "300c149b6f92c1b9a8ae0c52362c394eb0c0bc9ebd5459f7e848d951f6bcab4c",
      "vout": 0,
      "scriptSig": {
        "asm": "3045022100d40e4b4b90ea1a0e49ee166f6b66f86ee8f3386cdf659a50db56acddf0f55c2502200eb8affe348d2d2afcb3774cf48b2a4ca69baae695f32754c67d7d3ec6095418[ALL] 034a750b912f603eb2bd06fc1489d79f096e5428a42d1efeb88909371e85b77327",
        "hex": "483045022100d40e4b4b90ea1a0e49ee166f6b66f86ee8f3386cdf659a50db56acddf0f55c2502200eb8affe348d2d2afcb3774cf48b2a4ca69baae695f32754c67d7d3ec60954180121034a750b912f603eb2bd06fc1489d79f096e5428a42d1efeb88909371e85b77327"
      },
      "sequence": 4294967295
    }
  ],
  "vout": [
    {
      "value": 0.03036962,
      "n": 0,
      "scriptPubKey": {
        "asm": "OP_DUP OP_HASH160 47557afeabd2857467f9d0725b923dcf38271d12 OP_EQUALVERIFY OP_CHECKSIG",
        "hex": "76a91447557afeabd2857467f9d0725b923dcf38271d1288ac",
        "reqSigs": 1,
        "type": "pubkeyhash",
        "addresses": [
          "mn28fxcZWwedpetNS7747XJjUYNJJ9yiLc"
        ]
      }
    },
    {
      "value": 0.00100000,
      "n": 1,
      "scriptPubKey": {
        "asm": "OP_DUP OP_HASH160 3a35285c351a7d4d5109ca8a81571f2679632582 OP_EQUALVERIFY OP_CHECKSIG",
        "hex": "76a9143a35285c351a7d4d5109ca8a81571f267963258288ac",
        "reqSigs": 1,
        "type": "pubkeyhash",
        "addresses": [
          "mkpjAe1f2XUQZQuLZLZ6H32sWkE5tNvXa1"
        ]
      }
    }
  ],
  "blockhash": "0000000000002e456515c29bafb2d77cd7cf28f220a86b6515dfa127befb1738",
  "confirmations": 44387,
  "time": 1456217437,
  "blocktime": 1456217437
}
