{
  "hex" : "0100000001d4ebb3fdedf07159b294b1690b389de4b79944dc974fe9584fa2c00d9340e4a700000000d900473044022007d77862cc691b8917eb29597fc0c00e9e8437d13fe72923358c45ed5a2211100220062671cd844579c1ef7b753e34b342fba14d40e14bf77227b08c568547a7b1810147304402202dbc9bec2c074d5e7974255e8bf5a250bc32a2cc7f7d5aac71166559813c3142022049c9f1773ab0e8000408ba440bba3e332b9058441701537830034f481009d91101475221035fb254d38f86a57edebde2ddcaadc8d4f2ea16ea6e7ffab7536dd3930b4ee7c52102529a7fca66a04e460ab0dd02684698eb7ec71cc5f8a71496c152584f6c63b4c852aeffffffff01801a06000000000017a914e09673942da6f18bfc53b5301fba8018b7fb34e58700000000",
  "txid" : "2570975c55f74f77417a3da625cf0e1903e24acdfd6c1cb51e4f3c7c0fa313f0",
  "version" : 1,
  "locktime" : 0,
  "vin" : [
    {
      "txid" : "a7e440930dc0a24f58e94f97dc4499b7e49d380b69b194b25971f0edfdb3ebd4",
      "vout" : 0,
      "scriptSig" : {
        "asm" : "0 3044022007d77862cc691b8917eb29597fc0c00e9e8437d13fe72923358c45ed5a2211100220062671cd844579c1ef7b753e34b342fba14d40e14bf77227b08c568547a7b18101 304402202dbc9bec2c074d5e7974255e8bf5a250bc32a2cc7f7d5aac71166559813c3142022049c9f1773ab0e8000408ba440bba3e332b9058441701537830034f481009d91101 5221035fb254d38f86a57edebde2ddcaadc8d4f2ea16ea6e7ffab7536dd3930b4ee7c52102529a7fca66a04e460ab0dd02684698eb7ec71cc5f8a71496c152584f6c63b4c852ae",
        "hex" : "00473044022007d77862cc691b8917eb29597fc0c00e9e8437d13fe72923358c45ed5a2211100220062671cd844579c1ef7b753e34b342fba14d40e14bf77227b08c568547a7b1810147304402202dbc9bec2c074d5e7974255e8bf5a250bc32a2cc7f7d5aac71166559813c3142022049c9f1773ab0e8000408ba440bba3e332b9058441701537830034f481009d91101475221035fb254d38f86a57edebde2ddcaadc8d4f2ea16ea6e7ffab7536dd3930b4ee7c52102529a7fca66a04e460ab0dd02684698eb7ec71cc5f8a71496c152584f6c63b4c852ae"
      },
      "sequence" : 4294967295
    }
  ],
  "vout" : [
    {
      "value" : 0.00400000,
      "n" : 0,
      "scriptPubKey" : {
        "asm" : "OP_HASH160 e09673942da6f18bfc53b5301fba8018b7fb34e5 OP_EQUAL",
        "hex" : "a914e09673942da6f18bfc53b5301fba8018b7fb34e587",
        "reqSigs" : 1,
        "type" : "scripthash",
        "addresses" : [
          "2NDijaohnW9pcS8C5rKbadLsTg5BYz6EC6x"
        ]
      }
    }
  ],
  "blockhash" : "0000000000000de21dda27da66f5af8300802a0e0a70ab23d9b785494ef2f61c",
  "confirmations" : 2516,
  "time" : 1456476556,
  "blocktime" : 1456476556
}