{
  "hex": "010000000137fb7f03c0276cbc15c10be8c8c1d426e68a5a5ddad9310e720b805a9361ec980c0000006b48304502210095bc59355191349371aab7806b0a717a43a689efa7819524b1537e517c5631d302205f7122390defee01e2270025cfe4fdedc91523eff67531f12df6561c6f4ad2ce0121034a750b912f603eb2bd06fc1489d79f096e5428a42d1efeb88909371e85b77327ffffffff02d2043000000000001976a91447557afeabd2857467f9d0725b923dcf38271d1288aca0860100000000001976a91424dfe7bcee33902093302dcd485d219a04d1aaba88ac00000000",
  "txid": "2f778745d381a80afb3a798a27c6fb1529dbb5dd0016363638c8b2115f9d4173",
  "size": 226,
  "version": 1,
  "locktime": 0,
  "vin": [
    {
      "txid": "98ec61935a800b720e31d9da5d5a8ae626d4c1c8e80bc115bc6c27c0037ffb37",
      "vout": 12,
      "scriptSig": {
        "asm": "304502210095bc59355191349371aab7806b0a717a43a689efa7819524b1537e517c5631d302205f7122390defee01e2270025cfe4fdedc91523eff67531f12df6561c6f4ad2ce[ALL] 034a750b912f603eb2bd06fc1489d79f096e5428a42d1efeb88909371e85b77327",
        "hex": "48304502210095bc59355191349371aab7806b0a717a43a689efa7819524b1537e517c5631d302205f7122390defee01e2270025cfe4fdedc91523eff67531f12df6561c6f4ad2ce0121034a750b912f603eb2bd06fc1489d79f096e5428a42d1efeb88909371e85b77327"
      },
      "sequence": 4294967295
    }
  ],
  "vout": [
    {
      "value": 0.03146962,
      "n": 0,
      "scriptPubKey": {
        "asm": "OP_DUP OP_HASH160 47557afeabd2857467f9d0725b923dcf38271d12 OP_EQUALVERIFY OP_CHECKSIG",
        "hex": "76a91447557afeabd2857467f9d0725b923dcf38271d1288ac",
        "reqSigs": 1,
        "type": "pubkeyhash",
        "addresses": [
          "mn28fxcZWwedpetNS7747XJjUYNJJ9yiLc"
        ]
      }
    },
    {
      "value": 0.00100000,
      "n": 1,
      "scriptPubKey": {
        "asm": "OP_DUP OP_HASH160 24dfe7bcee33902093302dcd485d219a04d1aaba OP_EQUALVERIFY OP_CHECKSIG",
        "hex": "76a91424dfe7bcee33902093302dcd485d219a04d1aaba88ac",
        "reqSigs": 1,
        "type": "pubkeyhash",
        "addresses": [
          "misvrAgimeY2Pz1xWPK7aEjLx3EitRnabq"
        ]
      }
    }
  ],
  "blockhash": "00000000000030be776c194955b1a92ed5b5f4e8a95aa85d9fc18901874cde33",
  "confirmations": 44371,
  "time": 1456219733,
  "blocktime": 1456219733
}