{
  "hex": "0100000001f889106e79712d59189664a15bf599d35ddadefb140664d034772e00aa504d13000000006a47304402204710294dc35fb3bdce935be5686d975ec8c3d1f04d200e6ae71c416cee8c37c20220294bd35a83b2d41c32a270353414b0a59bb55f392d6d8f2714f5894b86fa07610121034a750b912f603eb2bd06fc1489d79f096e5428a42d1efeb88909371e85b77327ffffffff0272a92c00000000001976a91447557afeabd2857467f9d0725b923dcf38271d1288aca0860100000000001976a91474f2e876e657e0a7055d29d27911132aaaea8b2388ac00000000",
  "txid": "32728d750df1db9e0efe2db44578793c66f0597a5f27c5f59a382552acda4245",
  "size": 225,
  "version": 1,
  "locktime": 0,
  "vin": [
    {
      "txid": "134d50aa002e7734d0640614fbdeda5dd399f55ba1649618592d71796e1089f8",
      "vout": 0,
      "scriptSig": {
        "asm": "304402204710294dc35fb3bdce935be5686d975ec8c3d1f04d200e6ae71c416cee8c37c20220294bd35a83b2d41c32a270353414b0a59bb55f392d6d8f2714f5894b86fa0761[ALL] 034a750b912f603eb2bd06fc1489d79f096e5428a42d1efeb88909371e85b77327",
        "hex": "47304402204710294dc35fb3bdce935be5686d975ec8c3d1f04d200e6ae71c416cee8c37c20220294bd35a83b2d41c32a270353414b0a59bb55f392d6d8f2714f5894b86fa07610121034a750b912f603eb2bd06fc1489d79f096e5428a42d1efeb88909371e85b77327"
      },
      "sequence": 4294967295
    }
  ],
  "vout": [
    {
      "value": 0.02926962,
      "n": 0,
      "scriptPubKey": {
        "asm": "OP_DUP OP_HASH160 47557afeabd2857467f9d0725b923dcf38271d12 OP_EQUALVERIFY OP_CHECKSIG",
        "hex": "76a91447557afeabd2857467f9d0725b923dcf38271d1288ac",
        "reqSigs": 1,
        "type": "pubkeyhash",
        "addresses": [
          "mn28fxcZWwedpetNS7747XJjUYNJJ9yiLc"
        ]
      }
    },
    {
      "value": 0.00100000,
      "n": 1,
      "scriptPubKey": {
        "asm": "OP_DUP OP_HASH160 74f2e876e657e0a7055d29d27911132aaaea8b23 OP_EQUALVERIFY OP_CHECKSIG",
        "hex": "76a91474f2e876e657e0a7055d29d27911132aaaea8b2388ac",
        "reqSigs": 1,
        "type": "pubkeyhash",
        "addresses": [
          "mrBKfrWvKw7drrJeJBSvjwPaTr5Ky5xjdj"
        ]
      }
    }
  ],
  "blockhash": "0000000000001c18078c1aac7845c729f73102b112b171f504d30aa8c2458aa9",
  "confirmations": 44383,
  "time": 1456217937,
  "blocktime": 1456217937
}