{
  "hex": "010000000107930275fdd5660e1f2f64fc410dcf2113bc8451bf98c33fa433e030cf20f36e010000006b483045022100af97295235ab1dba064e488c4da2b569d1405f1740f9e13088323475a0ba47120220352d3eb9c6725e113cdaee72c7fb13d625a4baea7af96da52205a56f816842f00121030d294c82b69c3fc742ed41b67a420b06893e50f57d6bf87e5ab45cc4b4aa62bcffffffff0358020000000000001976a9140719edc9ab0e6964244c4d73f2f7cf1f2b812e5f88ac0000000000000000566a4c534f41010001a08d064a753d68747470733a2f2f6261726261646f732d77616c6c65742e73332d61702d6e6f727468656173742d312e616d617a6f6e6177732e636f6d2f6c6f616e61737365742d362e6a736f6e385d0100000000001976a9140719edc9ab0e6964244c4d73f2f7cf1f2b812e5f88ac00000000",
  "txid": "4e880e2cc387a53481cb6022ceb82b032841f238089612d3ba50fa2fa165987c",
  "size": 321,
  "version": 1,
  "locktime": 0,
  "vin": [
    {
      "txid": "6ef320cf30e033a43fc398bf5184bc1321cf0d41fc642f1f0e66d5fd75029307",
      "vout": 1,
      "scriptSig": {
        "asm": "3045022100af97295235ab1dba064e488c4da2b569d1405f1740f9e13088323475a0ba47120220352d3eb9c6725e113cdaee72c7fb13d625a4baea7af96da52205a56f816842f0[ALL] 030d294c82b69c3fc742ed41b67a420b06893e50f57d6bf87e5ab45cc4b4aa62bc",
        "hex": "483045022100af97295235ab1dba064e488c4da2b569d1405f1740f9e13088323475a0ba47120220352d3eb9c6725e113cdaee72c7fb13d625a4baea7af96da52205a56f816842f00121030d294c82b69c3fc742ed41b67a420b06893e50f57d6bf87e5ab45cc4b4aa62bc"
      },
      "sequence": 4294967295
    }
  ],
  "vout": [
    {
      "value": 0.00000600,
      "n": 0,
      "scriptPubKey": {
        "asm": "OP_DUP OP_HASH160 0719edc9ab0e6964244c4d73f2f7cf1f2b812e5f OP_EQUALVERIFY OP_CHECKSIG",
        "hex": "76a9140719edc9ab0e6964244c4d73f2f7cf1f2b812e5f88ac",
        "reqSigs": 1,
        "type": "pubkeyhash",
        "addresses": [
          "mgAW5xxCzLf6uzu9464zoYJaRN77sFnSwY"
        ]
      }
    },
    {
      "value": 0.00000000,
      "n": 1,
      "scriptPubKey": {
        "asm": "OP_RETURN 4f41010001a08d064a753d68747470733a2f2f6261726261646f732d77616c6c65742e73332d61702d6e6f727468656173742d312e616d617a6f6e6177732e636f6d2f6c6f616e61737365742d362e6a736f6e",
        "hex": "6a4c534f41010001a08d064a753d68747470733a2f2f6261726261646f732d77616c6c65742e73332d61702d6e6f727468656173742d312e616d617a6f6e6177732e636f6d2f6c6f616e61737365742d362e6a736f6e",
        "type": "nulldata"
      }
    },
    {
      "value": 0.00089400,
      "n": 2,
      "scriptPubKey": {
        "asm": "OP_DUP OP_HASH160 0719edc9ab0e6964244c4d73f2f7cf1f2b812e5f OP_EQUALVERIFY OP_CHECKSIG",
        "hex": "76a9140719edc9ab0e6964244c4d73f2f7cf1f2b812e5f88ac",
        "reqSigs": 1,
        "type": "pubkeyhash",
        "addresses": [
          "mgAW5xxCzLf6uzu9464zoYJaRN77sFnSwY"
        ]
      }
    }
  ],
  "blockhash": "000000000000247e52e12494c9834eaf2c07d62cbbdcb66075edf7940897b937",
  "confirmations": 44365,
  "time": 1456222131,
  "blocktime": 1456222131
}
