{
  "hex": "01000000014542daac5225389af5c5275f7a59f0663c797845b42dfe0e9edbf10d758d7232010000006a47304402201b1072461da0d95c4db56b66d77175e63b081fa88d936208e691c398ac5b1a0a022054b47dbd3f5d552572778b1fb9317d48c1aed129cfc2eae6ce83f2fc437b02a301210363aeb467b7353a3f36d8bc7d6023a3efd8b3c4cbeaf64bd09dd23c1ce63fb20effffffff0358020000000000001976a91474f2e876e657e0a7055d29d27911132aaaea8b2388ac0000000000000000566a4c534f41010001e0dc2a4a753d68747470733a2f2f6261726261646f732d77616c6c65742e73332d61702d6e6f727468656173742d312e616d617a6f6e6177732e636f6d2f6c6f616e61737365742d352e6a736f6e385d0100000000001976a91474f2e876e657e0a7055d29d27911132aaaea8b2388ac00000000",
  "txid": "644d4f73f53c1b2f82c897ece4c3a6fcf3a03408041aa8d6d0116533fc46322f",
  "size": 320,
  "version": 1,
  "locktime": 0,
  "vin": [
    {
      "txid": "32728d750df1db9e0efe2db44578793c66f0597a5f27c5f59a382552acda4245",
      "vout": 1,
      "scriptSig": {
        "asm": "304402201b1072461da0d95c4db56b66d77175e63b081fa88d936208e691c398ac5b1a0a022054b47dbd3f5d552572778b1fb9317d48c1aed129cfc2eae6ce83f2fc437b02a3[ALL] 0363aeb467b7353a3f36d8bc7d6023a3efd8b3c4cbeaf64bd09dd23c1ce63fb20e",
        "hex": "47304402201b1072461da0d95c4db56b66d77175e63b081fa88d936208e691c398ac5b1a0a022054b47dbd3f5d552572778b1fb9317d48c1aed129cfc2eae6ce83f2fc437b02a301210363aeb467b7353a3f36d8bc7d6023a3efd8b3c4cbeaf64bd09dd23c1ce63fb20e"
      },
      "sequence": 4294967295
    }
  ],
  "vout": [
    {
      "value": 0.00000600,
      "n": 0,
      "scriptPubKey": {
        "asm": "OP_DUP OP_HASH160 74f2e876e657e0a7055d29d27911132aaaea8b23 OP_EQUALVERIFY OP_CHECKSIG",
        "hex": "76a91474f2e876e657e0a7055d29d27911132aaaea8b2388ac",
        "reqSigs": 1,
        "type": "pubkeyhash",
        "addresses": [
          "mrBKfrWvKw7drrJeJBSvjwPaTr5Ky5xjdj"
        ]
      }
    },
    {
      "value": 0.00000000,
      "n": 1,
      "scriptPubKey": {
        "asm": "OP_RETURN 4f41010001e0dc2a4a753d68747470733a2f2f6261726261646f732d77616c6c65742e73332d61702d6e6f727468656173742d312e616d617a6f6e6177732e636f6d2f6c6f616e61737365742d352e6a736f6e",
        "hex": "6a4c534f41010001e0dc2a4a753d68747470733a2f2f6261726261646f732d77616c6c65742e73332d61702d6e6f727468656173742d312e616d617a6f6e6177732e636f6d2f6c6f616e61737365742d352e6a736f6e",
        "type": "nulldata"
      }
    },
    {
      "value": 0.00089400,
      "n": 2,
      "scriptPubKey": {
        "asm": "OP_DUP OP_HASH160 74f2e876e657e0a7055d29d27911132aaaea8b23 OP_EQUALVERIFY OP_CHECKSIG",
        "hex": "76a91474f2e876e657e0a7055d29d27911132aaaea8b2388ac",
        "reqSigs": 1,
        "type": "pubkeyhash",
        "addresses": [
          "mrBKfrWvKw7drrJeJBSvjwPaTr5Ky5xjdj"
        ]
      }
    }
  ],
  "blockhash": "00000000000035a68e5dac14d6dc5c15d2b58585ec5bd1055096190b53c0c68a",
  "confirmations": 44381,
  "time": 1456218523,
  "blocktime": 1456218523
}