{
  "hex": "0100000002c86b0a6a56ceb5c00be5aedcad9dfc9b5fdffafb24398b6a319a6d22ee44207b000000006b48304502210085535eb849f798e1d13b76ba7ebf8cd55d1a20844d1f74f774da466672fb5d4302205ad8bbbbbcd062c5ea9d6faa28dbcae7540bdf3f9170d1f48530481f857dd6850121034a750b912f603eb2bd06fc1489d79f096e5428a42d1efeb88909371e85b77327fffffffffe8b015033ad33ad40b9251adfe8d00f6407ce8d5f00e44e81215f6e7b498e85000000006a47304402204b6b4bdb0f0b73ded632e5c44a307c4a5c3c53bfe7af74da1697a205a13d5f29022045a6afd291ef4bf246dbded121d0ff72a21f209c93e88376d4805b4bb04a98910121034a750b912f603eb2bd06fc1489d79f096e5428a42d1efeb88909371e85b77327ffffffff01204e0000000000001976a914ac2f92bc736fb7e5c3614f685c26d788dc2c772088ac00000000",
  "txid": "666c3d92bef46695fcaf9f565509063b82c5332178ba765f4e5f8c304d5993f7",
  "size": 339,
  "version": 1,
  "locktime": 0,
  "vin": [
    {
      "txid": "7b2044ee226d9a316a8b3924fbfadf5f9bfc9daddcaee50bc0b5ce566a0a6bc8",
      "vout": 0,
      "scriptSig": {
        "asm": "304502210085535eb849f798e1d13b76ba7ebf8cd55d1a20844d1f74f774da466672fb5d4302205ad8bbbbbcd062c5ea9d6faa28dbcae7540bdf3f9170d1f48530481f857dd685[ALL] 034a750b912f603eb2bd06fc1489d79f096e5428a42d1efeb88909371e85b77327",
        "hex": "48304502210085535eb849f798e1d13b76ba7ebf8cd55d1a20844d1f74f774da466672fb5d4302205ad8bbbbbcd062c5ea9d6faa28dbcae7540bdf3f9170d1f48530481f857dd6850121034a750b912f603eb2bd06fc1489d79f096e5428a42d1efeb88909371e85b77327"
      },
      "sequence": 4294967295
    },
    {
      "txid": "858e497b6e5f21814ee4005f8dce07640fd0e8df1a25b940ad33ad3350018bfe",
      "vout": 0,
      "scriptSig": {
        "asm": "304402204b6b4bdb0f0b73ded632e5c44a307c4a5c3c53bfe7af74da1697a205a13d5f29022045a6afd291ef4bf246dbded121d0ff72a21f209c93e88376d4805b4bb04a9891[ALL] 034a750b912f603eb2bd06fc1489d79f096e5428a42d1efeb88909371e85b77327",
        "hex": "47304402204b6b4bdb0f0b73ded632e5c44a307c4a5c3c53bfe7af74da1697a205a13d5f29022045a6afd291ef4bf246dbded121d0ff72a21f209c93e88376d4805b4bb04a98910121034a750b912f603eb2bd06fc1489d79f096e5428a42d1efeb88909371e85b77327"
      },
      "sequence": 4294967295
    }
  ],
  "vout": [
    {
      "value": 0.00020000,
      "n": 0,
      "scriptPubKey": {
        "asm": "OP_DUP OP_HASH160 ac2f92bc736fb7e5c3614f685c26d788dc2c7720 OP_EQUALVERIFY OP_CHECKSIG",
        "hex": "76a914ac2f92bc736fb7e5c3614f685c26d788dc2c772088ac",
        "reqSigs": 1,
        "type": "pubkeyhash",
        "addresses": [
          "mwDPWVV2S1YyjKGVuZpDGKQLtvaxJUo8Ym"
        ]
      }
    }
  ],
  "blockhash": "00000000005a3c30c7d726d3715d738b4c6bdab452cf4d144020f92a57ee9c37",
  "confirmations": 81159,
  "time": 1454570345,
  "blocktime": 1454570345
}
