{
  "hex": "010000000137fb7f03c0276cbc15c10be8c8c1d426e68a5a5ddad9310e720b805a9361ec980d0000006a473044022002f288bd80c772cd113430fbbc05a8dc131b732c27cfa638831226c24478229c02201cc29346fca02035e8631ce749409aef4385250b04612a31f5b44f1bacab33ee0121034a750b912f603eb2bd06fc1489d79f096e5428a42d1efeb88909371e85b77327ffffffff02d2043000000000001976a91447557afeabd2857467f9d0725b923dcf38271d1288aca0860100000000001976a9140719edc9ab0e6964244c4d73f2f7cf1f2b812e5f88ac00000000",
  "txid": "6ef320cf30e033a43fc398bf5184bc1321cf0d41fc642f1f0e66d5fd75029307",
  "size": 225,
  "version": 1,
  "locktime": 0,
  "vin": [
    {
      "txid": "98ec61935a800b720e31d9da5d5a8ae626d4c1c8e80bc115bc6c27c0037ffb37",
      "vout": 13,
      "scriptSig": {
        "asm": "3044022002f288bd80c772cd113430fbbc05a8dc131b732c27cfa638831226c24478229c02201cc29346fca02035e8631ce749409aef4385250b04612a31f5b44f1bacab33ee[ALL] 034a750b912f603eb2bd06fc1489d79f096e5428a42d1efeb88909371e85b77327",
        "hex": "473044022002f288bd80c772cd113430fbbc05a8dc131b732c27cfa638831226c24478229c02201cc29346fca02035e8631ce749409aef4385250b04612a31f5b44f1bacab33ee0121034a750b912f603eb2bd06fc1489d79f096e5428a42d1efeb88909371e85b77327"
      },
      "sequence": 4294967295
    }
  ],
  "vout": [
    {
      "value": 0.03146962,
      "n": 0,
      "scriptPubKey": {
        "asm": "OP_DUP OP_HASH160 47557afeabd2857467f9d0725b923dcf38271d12 OP_EQUALVERIFY OP_CHECKSIG",
        "hex": "76a91447557afeabd2857467f9d0725b923dcf38271d1288ac",
        "reqSigs": 1,
        "type": "pubkeyhash",
        "addresses": [
          "mn28fxcZWwedpetNS7747XJjUYNJJ9yiLc"
        ]
      }
    },
    {
      "value": 0.00100000,
      "n": 1,
      "scriptPubKey": {
        "asm": "OP_DUP OP_HASH160 0719edc9ab0e6964244c4d73f2f7cf1f2b812e5f OP_EQUALVERIFY OP_CHECKSIG",
        "hex": "76a9140719edc9ab0e6964244c4d73f2f7cf1f2b812e5f88ac",
        "reqSigs": 1,
        "type": "pubkeyhash",
        "addresses": [
          "mgAW5xxCzLf6uzu9464zoYJaRN77sFnSwY"
        ]
      }
    }
  ],
  "blockhash": "00000000000030be776c194955b1a92ed5b5f4e8a95aa85d9fc18901874cde33",
  "confirmations": 44371,
  "time": 1456219733,
  "blocktime": 1456219733
}