{
  "hex": "01000000016a1a02216e9ad700a57e1afa6ea76246527c80cbcc03d4386e250d3aac18b151000000006b483045022100d6e3d66d41913cc1915ed5bc098df7a7db8f61735ab926637c603587f95d1c330220607bac9c99f7c06e58a6b0466f25391dfe55660ff2449a10b22e316bfed8922d012102163abb0026e6c6491cf72e2e11f64953f92a77730b0482963b9981fef4ae2272ffffffff020eac9300000000001976a9147632c358922bc0f17f549a8bb31539507711669088ac40830000000000001976a914ae060831ca8a026872c6947fec4bbf199f926b5f88ac00000000",
  "txid": "6f11edb522aa9b9ddac2999b550d8faf71e11110101a755e615f4f30bc4943fc",
  "hash": "6f11edb522aa9b9ddac2999b550d8faf71e11110101a755e615f4f30bc4943fc",
  "size": 226,
  "vsize": 226,
  "version": 1,
  "locktime": 0,
  "vin": [
    {
      "txid": "51b118ac3a0d256e38d403cccb807c524662a76efa1a7ea500d79a6e21021a6a",
      "vout": 0,
      "scriptSig": {
        "asm": "3045022100d6e3d66d41913cc1915ed5bc098df7a7db8f61735ab926637c603587f95d1c330220607bac9c99f7c06e58a6b0466f25391dfe55660ff2449a10b22e316bfed8922d[ALL] 02163abb0026e6c6491cf72e2e11f64953f92a77730b0482963b9981fef4ae2272",
        "hex": "483045022100d6e3d66d41913cc1915ed5bc098df7a7db8f61735ab926637c603587f95d1c330220607bac9c99f7c06e58a6b0466f25391dfe55660ff2449a10b22e316bfed8922d012102163abb0026e6c6491cf72e2e11f64953f92a77730b0482963b9981fef4ae2272"
      },
      "sequence": 4294967295
    }
  ],
  "vout": [
    {
      "value": 0.09677838,
      "n": 0,
      "scriptPubKey": {
        "asm": "OP_DUP OP_HASH160 7632c358922bc0f17f549a8bb315395077116690 OP_EQUALVERIFY OP_CHECKSIG",
        "hex": "76a9147632c358922bc0f17f549a8bb31539507711669088ac",
        "reqSigs": 1,
        "type": "pubkeyhash",
        "addresses": [
          "mrHvqmcQxLeXaJ5PTzHNNN5ad4SZ3Mghko"
        ]
      }
    },
    {
      "value": 0.00033600,
      "n": 1,
      "scriptPubKey": {
        "asm": "OP_DUP OP_HASH160 ae060831ca8a026872c6947fec4bbf199f926b5f OP_EQUALVERIFY OP_CHECKSIG",
        "hex": "76a914ae060831ca8a026872c6947fec4bbf199f926b5f88ac",
        "reqSigs": 1,
        "type": "pubkeyhash",
        "addresses": [
          "mwP76YVvvLe1kUxvoMJJ29gFkYSaeu2Wzw"
        ]
      }
    }
  ],
  "blockhash": "00000000000af633c2011d7b148566815b7dc267b2016bf883f9fde35d668355",
  "confirmations": 13684,
  "time": 1504513035,
  "blocktime": 1504513035
}