{
  "hex" : "01000000010000000000000000000000000000000000000000000000000000000000000000ffffffff040377040bffffffff02d3f24025000000001976a91452265d93de654fc4cb6b56d6bf79801bb4fdb8d188ac0000000000000000256a28124d696e65642062792031686173682e636f6dfdd9b8abbee9cc7ebee9cc7e8923008200000000",
  "txid" : "8a750f083b2d7b5166be2ea897a073830a7e5cf7dafdb54f0a6c9151b39de60b",
  "version" : 1,
  "locktime" : 0,
  "vin" : [
    {
      "coinbase" : "0377040b",
      "sequence" : 4294967295
    }
  ],
  "vout" : [
    {
      "value" : 6.25013459,
      "n" : 0,
      "scriptPubKey" : {
        "asm" : "OP_DUP OP_HASH160 52265d93de654fc4cb6b56d6bf79801bb4fdb8d1 OP_EQUALVERIFY OP_CHECKSIG",
        "hex" : "76a91452265d93de654fc4cb6b56d6bf79801bb4fdb8d188ac",
        "reqSigs" : 1,
        "type" : "pubkeyhash",
        "addresses" : [
          "mo1KfU7wWJFqRWbFddqaWARg8qLFeNPPPr"
        ]
      }
    },
    {
      "value" : 0.00000000,
      "n" : 1,
      "scriptPubKey" : {
        "asm" : "OP_RETURN [error]",
        "hex" : "6a28124d696e65642062792031686173682e636f6dfdd9b8abbee9cc7ebee9cc7e89230082",
        "type" : "nonstandard"
      }
    }
  ],
  "blockhash" : "0000000000001521a7fd176803e2a7c3b327617319837144d6fa326fad56641e",
  "confirmations" : 8,
  "time" : 1456708516,
  "blocktime" : 1456708516
}