{
  "hex": "010000000428215db1854854eb547e24a6a2acb077f919d626423479f0e29a354eba9825e2000000006b483045022100a1dfdb6925ec6c959a526b4597b5153ceae71dd8c5775dea3dbf76f00ceeaa8c022065301e3781689e1f0bcd08b2388ff949ee4e604b2877431a33e481a297a0bd50012102c25bf324a7db11872c70cce0b732989c8c90cf184ac028f6189a8582075e736cfffffffff9ddec5f43e6cea619829e438322125dd214e4174dcac83147397356a18ba5fd000000006b483045022100ecdb5da7af665e8d2f335f6db556d441344f9e71d3fa9ac064e1602325a28fd4022042fcc9bc3227777fe37d1a0f6b011f51ff1b7e42daae5dff2221e6790009d7f9012102c25bf324a7db11872c70cce0b732989c8c90cf184ac028f6189a8582075e736cffffffff37f975e9cbd10e3762b15d5096bc5504821bc3711b816cf92859ef6ca1304596010000006a47304402207b5fc22af13448740eac623ac2ba733ea790a4479264ffdc8238c26231c076330220160220e0e8873b0201210e919b5415e631ddf7f2a1b73664ffb22d51da180d26012102c25bf324a7db11872c70cce0b732989c8c90cf184ac028f6189a8582075e736cffffffff34e4490b8c05c58adfeee06f87cc689c891eef4ced5d2d292f852cf12c7676e7010000006a47304402206d325834e7fcda1914161d1a68db16f1750e27f13bd6323b1ea6526c48c7fe8d02204f180459c85d6b3f2e3c395722e2887271a250b715ae92648fa08c935e9d5663012102c25bf324a7db11872c70cce0b732989c8c90cf184ac028f6189a8582075e736cffffffff060000000000000000146a124f41010004c09a0ca0c21ec09a0ca0c21e0058020000000000001976a91474f2e876e657e0a7055d29d27911132aaaea8b2388ac58020000000000001976a91474f2e876e657e0a7055d29d27911132aaaea8b2388ac58020000000000001976a9143a35285c351a7d4d5109ca8a81571f267963258288ac58020000000000001976a914ac2f92bc736fb7e5c3614f685c26d788dc2c772088ac385d0100000000001976a914f7e86df7d48beb911d7e13d6b79a8b3c574f3fa688ac00000000",
  "txid": "8b226c4147b935362c57cf5a097746270bce22e0b06dc2f7ace996292e7d6c41",
  "size": 799,
  "version": 1,
  "locktime": 0,
  "vin": [
    {
      "txid": "e22598ba4e359ae2f079344226d619f977b0aca2a6247e54eb544885b15d2128",
      "vout": 0,
      "scriptSig": {
        "asm": "3045022100a1dfdb6925ec6c959a526b4597b5153ceae71dd8c5775dea3dbf76f00ceeaa8c022065301e3781689e1f0bcd08b2388ff949ee4e604b2877431a33e481a297a0bd50[ALL] 02c25bf324a7db11872c70cce0b732989c8c90cf184ac028f6189a8582075e736c",
        "hex": "483045022100a1dfdb6925ec6c959a526b4597b5153ceae71dd8c5775dea3dbf76f00ceeaa8c022065301e3781689e1f0bcd08b2388ff949ee4e604b2877431a33e481a297a0bd50012102c25bf324a7db11872c70cce0b732989c8c90cf184ac028f6189a8582075e736c"
      },
      "sequence": 4294967295
    },
    {
      "txid": "fda58ba15673394731c8ca4d17e414d25d122283439e8219a6cee6435fecddf9",
      "vout": 0,
      "scriptSig": {
        "asm": "3045022100ecdb5da7af665e8d2f335f6db556d441344f9e71d3fa9ac064e1602325a28fd4022042fcc9bc3227777fe37d1a0f6b011f51ff1b7e42daae5dff2221e6790009d7f9[ALL] 02c25bf324a7db11872c70cce0b732989c8c90cf184ac028f6189a8582075e736c",
        "hex": "483045022100ecdb5da7af665e8d2f335f6db556d441344f9e71d3fa9ac064e1602325a28fd4022042fcc9bc3227777fe37d1a0f6b011f51ff1b7e42daae5dff2221e6790009d7f9012102c25bf324a7db11872c70cce0b732989c8c90cf184ac028f6189a8582075e736c"
      },
      "sequence": 4294967295
    },
    {
      "txid": "964530a16cef5928f96c811b71c31b820455bc96505db162370ed1cbe975f937",
      "vout": 1,
      "scriptSig": {
        "asm": "304402207b5fc22af13448740eac623ac2ba733ea790a4479264ffdc8238c26231c076330220160220e0e8873b0201210e919b5415e631ddf7f2a1b73664ffb22d51da180d26[ALL] 02c25bf324a7db11872c70cce0b732989c8c90cf184ac028f6189a8582075e736c",
        "hex": "47304402207b5fc22af13448740eac623ac2ba733ea790a4479264ffdc8238c26231c076330220160220e0e8873b0201210e919b5415e631ddf7f2a1b73664ffb22d51da180d26012102c25bf324a7db11872c70cce0b732989c8c90cf184ac028f6189a8582075e736c"
      },
      "sequence": 4294967295
    },
    {
      "txid": "e776762cf12c852f292d5ded4cef1e899c68cc876fe0eedf8ac5058c0b49e434",
      "vout": 1,
      "scriptSig": {
        "asm": "304402206d325834e7fcda1914161d1a68db16f1750e27f13bd6323b1ea6526c48c7fe8d02204f180459c85d6b3f2e3c395722e2887271a250b715ae92648fa08c935e9d5663[ALL] 02c25bf324a7db11872c70cce0b732989c8c90cf184ac028f6189a8582075e736c",
        "hex": "47304402206d325834e7fcda1914161d1a68db16f1750e27f13bd6323b1ea6526c48c7fe8d02204f180459c85d6b3f2e3c395722e2887271a250b715ae92648fa08c935e9d5663012102c25bf324a7db11872c70cce0b732989c8c90cf184ac028f6189a8582075e736c"
      },
      "sequence": 4294967295
    }
  ],
  "vout": [
    {
      "value": 0.00000000,
      "n": 0,
      "scriptPubKey": {
        "asm": "OP_RETURN 4f41010004c09a0ca0c21ec09a0ca0c21e00",
        "hex": "6a124f41010004c09a0ca0c21ec09a0ca0c21e00",
        "type": "nulldata"
      }
    },
    {
      "value": 0.00000600,
      "n": 1,
      "scriptPubKey": {
        "asm": "OP_DUP OP_HASH160 74f2e876e657e0a7055d29d27911132aaaea8b23 OP_EQUALVERIFY OP_CHECKSIG",
        "hex": "76a91474f2e876e657e0a7055d29d27911132aaaea8b2388ac",
        "reqSigs": 1,
        "type": "pubkeyhash",
        "addresses": [
          "mrBKfrWvKw7drrJeJBSvjwPaTr5Ky5xjdj"
        ]
      }
    },
    {
      "value": 0.00000600,
      "n": 2,
      "scriptPubKey": {
        "asm": "OP_DUP OP_HASH160 74f2e876e657e0a7055d29d27911132aaaea8b23 OP_EQUALVERIFY OP_CHECKSIG",
        "hex": "76a91474f2e876e657e0a7055d29d27911132aaaea8b2388ac",
        "reqSigs": 1,
        "type": "pubkeyhash",
        "addresses": [
          "mrBKfrWvKw7drrJeJBSvjwPaTr5Ky5xjdj"
        ]
      }
    },
    {
      "value": 0.00000600,
      "n": 3,
      "scriptPubKey": {
        "asm": "OP_DUP OP_HASH160 3a35285c351a7d4d5109ca8a81571f2679632582 OP_EQUALVERIFY OP_CHECKSIG",
        "hex": "76a9143a35285c351a7d4d5109ca8a81571f267963258288ac",
        "reqSigs": 1,
        "type": "pubkeyhash",
        "addresses": [
          "mkpjAe1f2XUQZQuLZLZ6H32sWkE5tNvXa1"
        ]
      }
    },
    {
      "value": 0.00000600,
      "n": 4,
      "scriptPubKey": {
        "asm": "OP_DUP OP_HASH160 ac2f92bc736fb7e5c3614f685c26d788dc2c7720 OP_EQUALVERIFY OP_CHECKSIG",
        "hex": "76a914ac2f92bc736fb7e5c3614f685c26d788dc2c772088ac",
        "reqSigs": 1,
        "type": "pubkeyhash",
        "addresses": [
          "mwDPWVV2S1YyjKGVuZpDGKQLtvaxJUo8Ym"
        ]
      }
    },
    {
      "value": 0.00089400,
      "n": 5,
      "scriptPubKey": {
        "asm": "OP_DUP OP_HASH160 f7e86df7d48beb911d7e13d6b79a8b3c574f3fa6 OP_EQUALVERIFY OP_CHECKSIG",
        "hex": "76a914f7e86df7d48beb911d7e13d6b79a8b3c574f3fa688ac",
        "reqSigs": 1,
        "type": "pubkeyhash",
        "addresses": [
          "n47mdvctxYx9GjJPNRDEtgAwsPmw9z4G35"
        ]
      }
    }
  ],
  "blockhash": "0000000000001b9b859433de8a0a409e5afd6a931579199312b7952e9c17612a",
  "confirmations": 44374,
  "time": 1456221401,
  "blocktime": 1456221401
}
