{
  "hex": "01000000022f3246fc336511d0d6a81a040834a0f3fca6c3e4ec97c8822f1b3cf5734f4d64000000006a473044022022d999d58aea9a280a1d16a7049e73e1c6ef2f0ebd221250a7c96aaa7fe379f802207d21a8dd13d2a2218b042291e65c0b26545be4c3533ae1deb21951f97dd7d86401210363aeb467b7353a3f36d8bc7d6023a3efd8b3c4cbeaf64bd09dd23c1ce63fb20effffffff2f3246fc336511d0d6a81a040834a0f3fca6c3e4ec97c8822f1b3cf5734f4d64020000006b483045022100c63bf73ffdb8df2db3fd8e6dbe02c7f8e1f70a64b34519981c904a3ca0720381022058ba1f36b8b12645a9eeb953b3349642b43739d6c91b44ab9dcab5536c206bc801210363aeb467b7353a3f36d8bc7d6023a3efd8b3c4cbeaf64bd09dd23c1ce63fb20effffffff0300000000000000000b6a094f41010001e0dc2a0058020000000000001976a914f7e86df7d48beb911d7e13d6b79a8b3c574f3fa688ac28360100000000001976a91474f2e876e657e0a7055d29d27911132aaaea8b2388ac00000000",
  "txid": "964530a16cef5928f96c811b71c31b820455bc96505db162370ed1cbe975f937",
  "size": 393,
  "version": 1,
  "locktime": 0,
  "vin": [
    {
      "txid": "644d4f73f53c1b2f82c897ece4c3a6fcf3a03408041aa8d6d0116533fc46322f",
      "vout": 0,
      "scriptSig": {
        "asm": "3044022022d999d58aea9a280a1d16a7049e73e1c6ef2f0ebd221250a7c96aaa7fe379f802207d21a8dd13d2a2218b042291e65c0b26545be4c3533ae1deb21951f97dd7d864[ALL] 0363aeb467b7353a3f36d8bc7d6023a3efd8b3c4cbeaf64bd09dd23c1ce63fb20e",
        "hex": "473044022022d999d58aea9a280a1d16a7049e73e1c6ef2f0ebd221250a7c96aaa7fe379f802207d21a8dd13d2a2218b042291e65c0b26545be4c3533ae1deb21951f97dd7d86401210363aeb467b7353a3f36d8bc7d6023a3efd8b3c4cbeaf64bd09dd23c1ce63fb20e"
      },
      "sequence": 4294967295
    },
    {
      "txid": "644d4f73f53c1b2f82c897ece4c3a6fcf3a03408041aa8d6d0116533fc46322f",
      "vout": 2,
      "scriptSig": {
        "asm": "3045022100c63bf73ffdb8df2db3fd8e6dbe02c7f8e1f70a64b34519981c904a3ca0720381022058ba1f36b8b12645a9eeb953b3349642b43739d6c91b44ab9dcab5536c206bc8[ALL] 0363aeb467b7353a3f36d8bc7d6023a3efd8b3c4cbeaf64bd09dd23c1ce63fb20e",
        "hex": "483045022100c63bf73ffdb8df2db3fd8e6dbe02c7f8e1f70a64b34519981c904a3ca0720381022058ba1f36b8b12645a9eeb953b3349642b43739d6c91b44ab9dcab5536c206bc801210363aeb467b7353a3f36d8bc7d6023a3efd8b3c4cbeaf64bd09dd23c1ce63fb20e"
      },
      "sequence": 4294967295
    }
  ],
  "vout": [
    {
      "value": 0.00000000,
      "n": 0,
      "scriptPubKey": {
        "asm": "OP_RETURN 4f41010001e0dc2a00",
        "hex": "6a094f41010001e0dc2a00",
        "type": "nulldata"
      }
    },
    {
      "value": 0.00000600,
      "n": 1,
      "scriptPubKey": {
        "asm": "OP_DUP OP_HASH160 f7e86df7d48beb911d7e13d6b79a8b3c574f3fa6 OP_EQUALVERIFY OP_CHECKSIG",
        "hex": "76a914f7e86df7d48beb911d7e13d6b79a8b3c574f3fa688ac",
        "reqSigs": 1,
        "type": "pubkeyhash",
        "addresses": [
          "n47mdvctxYx9GjJPNRDEtgAwsPmw9z4G35"
        ]
      }
    },
    {
      "value": 0.00079400,
      "n": 2,
      "scriptPubKey": {
        "asm": "OP_DUP OP_HASH160 74f2e876e657e0a7055d29d27911132aaaea8b23 OP_EQUALVERIFY OP_CHECKSIG",
        "hex": "76a91474f2e876e657e0a7055d29d27911132aaaea8b2388ac",
        "reqSigs": 1,
        "type": "pubkeyhash",
        "addresses": [
          "mrBKfrWvKw7drrJeJBSvjwPaTr5Ky5xjdj"
        ]
      }
    }
  ],
  "blockhash": "0000000000000df5217f3733dfddcc80b5abcb248483b246692c5e3923101d17",
  "confirmations": 44376,
  "time": 1456220789,
  "blocktime": 1456220789
}
