{
  "hex": "01000000027c9865a12ffa50bad312960838f24128032bb8ce2260cb8134a587c32c0e884e000000006b4830450221008a954720b807361b460e86906996ee6bce511cc59932001796f98184cbde9b5902205f0388a51519b2f43fa79543f5bfcbfd6987c02ec897075ffada3bb01aeb4f6f0121030d294c82b69c3fc742ed41b67a420b06893e50f57d6bf87e5ab45cc4b4aa62bcffffffff7c9865a12ffa50bad312960838f24128032bb8ce2260cb8134a587c32c0e884e020000006a47304402201416f66338e8a53b60bcd7210058c888aae0e0c514e0846d6f436b248fea3da1022054643dabfb1ceede59cbec8c3a9fe340316665d7a031776ee16711954fa9d9070121030d294c82b69c3fc742ed41b67a420b06893e50f57d6bf87e5ab45cc4b4aa62bcffffffff0300000000000000000b6a094f41010001a08d060058020000000000001976a9141313a65b1ec5e9a6907819c536c644dc7a8e034188ac28360100000000001976a9140719edc9ab0e6964244c4d73f2f7cf1f2b812e5f88ac00000000",
  "txid": "a45cbbcdcea24e8990546b36831d99008aedac5aeed928afded3d509467ead3d",
  "size": 393,
  "version": 1,
  "locktime": 0,
  "vin": [
    {
      "txid": "4e880e2cc387a53481cb6022ceb82b032841f238089612d3ba50fa2fa165987c",
      "vout": 0,
      "scriptSig": {
        "asm": "30450221008a954720b807361b460e86906996ee6bce511cc59932001796f98184cbde9b5902205f0388a51519b2f43fa79543f5bfcbfd6987c02ec897075ffada3bb01aeb4f6f[ALL] 030d294c82b69c3fc742ed41b67a420b06893e50f57d6bf87e5ab45cc4b4aa62bc",
        "hex": "4830450221008a954720b807361b460e86906996ee6bce511cc59932001796f98184cbde9b5902205f0388a51519b2f43fa79543f5bfcbfd6987c02ec897075ffada3bb01aeb4f6f0121030d294c82b69c3fc742ed41b67a420b06893e50f57d6bf87e5ab45cc4b4aa62bc"
      },
      "sequence": 4294967295
    },
    {
      "txid": "4e880e2cc387a53481cb6022ceb82b032841f238089612d3ba50fa2fa165987c",
      "vout": 2,
      "scriptSig": {
        "asm": "304402201416f66338e8a53b60bcd7210058c888aae0e0c514e0846d6f436b248fea3da1022054643dabfb1ceede59cbec8c3a9fe340316665d7a031776ee16711954fa9d907[ALL] 030d294c82b69c3fc742ed41b67a420b06893e50f57d6bf87e5ab45cc4b4aa62bc",
        "hex": "47304402201416f66338e8a53b60bcd7210058c888aae0e0c514e0846d6f436b248fea3da1022054643dabfb1ceede59cbec8c3a9fe340316665d7a031776ee16711954fa9d9070121030d294c82b69c3fc742ed41b67a420b06893e50f57d6bf87e5ab45cc4b4aa62bc"
      },
      "sequence": 4294967295
    }
  ],
  "vout": [
    {
      "value": 0.00000000,
      "n": 0,
      "scriptPubKey": {
        "asm": "OP_RETURN 4f41010001a08d0600",
        "hex": "6a094f41010001a08d0600",
        "type": "nulldata"
      }
    },
    {
      "value": 0.00000600,
      "n": 1,
      "scriptPubKey": {
        "asm": "OP_DUP OP_HASH160 1313a65b1ec5e9a6907819c536c644dc7a8e0341 OP_EQUALVERIFY OP_CHECKSIG",
        "hex": "76a9141313a65b1ec5e9a6907819c536c644dc7a8e034188ac",
        "reqSigs": 1,
        "type": "pubkeyhash",
        "addresses": [
          "mhFpfzXx6KXJxqmZha7bQo6g1C5LjdFpc5"
        ]
      }
    },
    {
      "value": 0.00079400,
      "n": 2,
      "scriptPubKey": {
        "asm": "OP_DUP OP_HASH160 0719edc9ab0e6964244c4d73f2f7cf1f2b812e5f OP_EQUALVERIFY OP_CHECKSIG",
        "hex": "76a9140719edc9ab0e6964244c4d73f2f7cf1f2b812e5f88ac",
        "reqSigs": 1,
        "type": "pubkeyhash",
        "addresses": [
          "mgAW5xxCzLf6uzu9464zoYJaRN77sFnSwY"
        ]
      }
    }
  ],
  "blockhash": "000000000000142e25654c7bfe6c5ff863eb37f422b2826dfe1c715b3dad0441",
  "confirmations": 44349,
  "time": 1456227750,
  "blocktime": 1456227750
}
