{
  "hex" : "01000000018ede2fe9dea37baa053b5502b0f2a536c3811e34ed2c9f1191a7d5bd7f13cb38010000007000483045022100cf831a4d5bad5b3f66f4d15d9156079d1383d9513b77ba2066ceef50a00404a702200d49a0ed10f6c03d240147672adfdd279c4885f927f0561f93e82d7b2f45b17301255121032d93ae00f528b3601822fc3fd264dc62c98fcce174c3b8a080c75c1869f24b5751aeffffffff02400d0300000000001976a91437adc9d67373154868f532efd7040499ee1a5e8188acfb3eb2c10100000017a914dcf96de34b4120967dc66eecc59a605b5d6e45748700000000",
  "txid" : "a983a4d0326ddb177107431515832205c843a61f0bb518be459134f3bdd035db",
  "version" : 1,
  "locktime" : 0,
  "vin" : [
    {
      "txid" : "38cb137fbdd5a791119f2ced341e81c336a5f2b002553b05aa7ba3dee92fde8e",
      "vout" : 1,
      "scriptSig" : {
        "asm" : "0 3045022100cf831a4d5bad5b3f66f4d15d9156079d1383d9513b77ba2066ceef50a00404a702200d49a0ed10f6c03d240147672adfdd279c4885f927f0561f93e82d7b2f45b17301 5121032d93ae00f528b3601822fc3fd264dc62c98fcce174c3b8a080c75c1869f24b5751ae",
        "hex" : "00483045022100cf831a4d5bad5b3f66f4d15d9156079d1383d9513b77ba2066ceef50a00404a702200d49a0ed10f6c03d240147672adfdd279c4885f927f0561f93e82d7b2f45b17301255121032d93ae00f528b3601822fc3fd264dc62c98fcce174c3b8a080c75c1869f24b5751ae"
      },
      "sequence" : 4294967295
    }
  ],
  "vout" : [
    {
      "value" : 0.00200000,
      "n" : 0,
      "scriptPubKey" : {
        "asm" : "OP_DUP OP_HASH160 37adc9d67373154868f532efd7040499ee1a5e81 OP_EQUALVERIFY OP_CHECKSIG",
        "hex" : "76a91437adc9d67373154868f532efd7040499ee1a5e8188ac",
        "reqSigs" : 1,
        "type" : "pubkeyhash",
        "addresses" : [
          "mkbMeds6HYPJtPn71hCi1VKv3Y1FE9k6rK"
        ]
      }
    },
    {
      "value" : 75.44651515,
      "n" : 1,
      "scriptPubKey" : {
        "asm" : "OP_HASH160 dcf96de34b4120967dc66eecc59a605b5d6e4574 OP_EQUAL",
        "hex" : "a914dcf96de34b4120967dc66eecc59a605b5d6e457487",
        "reqSigs" : 1,
        "type" : "scripthash",
        "addresses" : [
          "2NDPdT8mUAXR6Livroe2bWUciteGjMpNd33"
        ]
      }
    }
  ],
  "blockhash" : "0000000000001521a7fd176803e2a7c3b327617319837144d6fa326fad56641e",
  "confirmations" : 8,
  "time" : 1456708516,
  "blocktime" : 1456708516
}