{
  "hex": "01000000012c9753f40f933e007a0c2e6a084ab4690aff01f934760042d51ff2debe661a29000000006b483045022100f97b4036eabb78378971476786494e72d533381c7f4b238fb05c846c2adc065102205e533ef3b95afd6140c67677f276f9db61d71837721ca9cee5b3f6e33f3d8dfa0121034a750b912f603eb2bd06fc1489d79f096e5428a42d1efeb88909371e85b77327ffffffff0222572e00000000001976a91447557afeabd2857467f9d0725b923dcf38271d1288aca0860100000000001976a9141313a65b1ec5e9a6907819c536c644dc7a8e034188ac00000000",
  "txid": "ae765fae99520eb11a46e44fd21f616293801aab74367598d36eb204807c0e02",
  "size": 226,
  "version": 1,
  "locktime": 0,
  "vin": [
    {
      "txid": "291a66bedef21fd542007634f901ff0a69b44a086a2e0c7a003e930ff453972c",
      "vout": 0,
      "scriptSig": {
        "asm": "3045022100f97b4036eabb78378971476786494e72d533381c7f4b238fb05c846c2adc065102205e533ef3b95afd6140c67677f276f9db61d71837721ca9cee5b3f6e33f3d8dfa[ALL] 034a750b912f603eb2bd06fc1489d79f096e5428a42d1efeb88909371e85b77327",
        "hex": "483045022100f97b4036eabb78378971476786494e72d533381c7f4b238fb05c846c2adc065102205e533ef3b95afd6140c67677f276f9db61d71837721ca9cee5b3f6e33f3d8dfa0121034a750b912f603eb2bd06fc1489d79f096e5428a42d1efeb88909371e85b77327"
      },
      "sequence": 4294967295
    }
  ],
  "vout": [
    {
      "value": 0.03036962,
      "n": 0,
      "scriptPubKey": {
        "asm": "OP_DUP OP_HASH160 47557afeabd2857467f9d0725b923dcf38271d12 OP_EQUALVERIFY OP_CHECKSIG",
        "hex": "76a91447557afeabd2857467f9d0725b923dcf38271d1288ac",
        "reqSigs": 1,
        "type": "pubkeyhash",
        "addresses": [
          "mn28fxcZWwedpetNS7747XJjUYNJJ9yiLc"
        ]
      }
    },
    {
      "value": 0.00100000,
      "n": 1,
      "scriptPubKey": {
        "asm": "OP_DUP OP_HASH160 1313a65b1ec5e9a6907819c536c644dc7a8e0341 OP_EQUALVERIFY OP_CHECKSIG",
        "hex": "76a9141313a65b1ec5e9a6907819c536c644dc7a8e034188ac",
        "reqSigs": 1,
        "type": "pubkeyhash",
        "addresses": [
          "mhFpfzXx6KXJxqmZha7bQo6g1C5LjdFpc5"
        ]
      }
    }
  ],
  "blockhash": "00000000000030be776c194955b1a92ed5b5f4e8a95aa85d9fc18901874cde33",
  "confirmations": 44371,
  "time": 1456219733,
  "blocktime": 1456219733
}
