{
  "hex" : "01000000057a0f85c96bfe7dac48d276b14f23329721674b4971ad0536ccc0652422bc2eee000000006b483045022100da5ee4246284df12e53685965abd7d7d07ddf07dc371c856789d5c6df565d645022047450b61f6cb7265e18d7215fe21fd7d944a678c35cbdf9dafc67d2220f4946a0121031f4dd2bf3e2a069197a11f477cca602b7bd6bad1cd330b3b0b0cf0c459451df3ffffffff854fa3262688222ae385cc05e3df6c23aab25854d399091ee831f8d826a15af7000000006b483045022100bc37188dbbbe0baaeaac42854457e8b0c392cc862f04ea11befb9b1efa0b67fe022066ed74500608a8b4856fd044c0ff8144f6a8d253c9be0cb2c084e5b3c6711a400121031f4dd2bf3e2a069197a11f477cca602b7bd6bad1cd330b3b0b0cf0c459451df3ffffffff1b2bc6285b5156544ac744f221b13ea349a880be7356c43c3d293eb66255c9fe000000006a47304402202f38075a682f42c2958cbee7248225f14810bfa6002da736c442ad398cb92d340220212feff02f239e6b855130221f513127b146f78cad3259e29e8144676ebe737c0121031f4dd2bf3e2a069197a11f477cca602b7bd6bad1cd330b3b0b0cf0c459451df3ffffffff3dad7e4609d5d3deaf28d9ee5aaced8a00991d83366b5490894ea2cecdbb5ca4010000006b483045022100f43c9833526daa19886450f9fa71aa069d2f84670dca0557cc02f0288f58754b0220700cf82b69c7571ae9b5915155cbafb84ef72d00a25a571b1a764aea0b56ddeb0121031f4dd2bf3e2a069197a11f477cca602b7bd6bad1cd330b3b0b0cf0c459451df3ffffffff020e7c8004b26ed398753674ab1a809362611fd24fe4461ab10e5299ae5f76ae010000006b483045022100f6c4088a357cd2a569fad02c0d0c09421c43be9d6444c3979e830f6a1d050f4d02206246b296faa3f0091f58e294ec2d58ecde68f831ee00b2b0317c3649a0b9ef330121031f4dd2bf3e2a069197a11f477cca602b7bd6bad1cd330b3b0b0cf0c459451df3ffffffff0800000000000000001a6a184f41010006a09c01a09c01e0d403a09c01a09c01e0d4030058020000000000001976a9140719edc9ab0e6964244c4d73f2f7cf1f2b812e5f88ac58020000000000001976a9140719edc9ab0e6964244c4d73f2f7cf1f2b812e5f88ac58020000000000001976a9140719edc9ab0e6964244c4d73f2f7cf1f2b812e5f88ac58020000000000001976a91424dfe7bcee33902093302dcd485d219a04d1aaba88ac58020000000000001976a91440d2dbf8198e80c0d0c19ed001a49076d19fe83288ac58020000000000001976a914a36418afb89ea7903c55c797af650dad7241470488ace05a0100000000001976a9141313a65b1ec5e9a6907819c536c644dc7a8e034188ac00000000",
  "txid" : "b126aacedc27d12f1d3d653bd7430d7de6ad9ccb90ab116b3f0fd66175ffb556",
  "version" : 1,
  "locktime" : 0,
  "vin" : [
    {
      "txid" : "ee2ebc222465c0cc3605ad71494b67219732234fb176d248ac7dfe6bc9850f7a",
      "vout" : 0,
      "scriptSig" : {
        "asm" : "3045022100da5ee4246284df12e53685965abd7d7d07ddf07dc371c856789d5c6df565d645022047450b61f6cb7265e18d7215fe21fd7d944a678c35cbdf9dafc67d2220f4946a01 031f4dd2bf3e2a069197a11f477cca602b7bd6bad1cd330b3b0b0cf0c459451df3",
        "hex" : "483045022100da5ee4246284df12e53685965abd7d7d07ddf07dc371c856789d5c6df565d645022047450b61f6cb7265e18d7215fe21fd7d944a678c35cbdf9dafc67d2220f4946a0121031f4dd2bf3e2a069197a11f477cca602b7bd6bad1cd330b3b0b0cf0c459451df3"
      },
      "sequence" : 4294967295
    },
    {
      "txid" : "f75aa126d8f831e81e0999d35458b2aa236cdfe305cc85e32a22882626a34f85",
      "vout" : 0,
      "scriptSig" : {
        "asm" : "3045022100bc37188dbbbe0baaeaac42854457e8b0c392cc862f04ea11befb9b1efa0b67fe022066ed74500608a8b4856fd044c0ff8144f6a8d253c9be0cb2c084e5b3c6711a4001 031f4dd2bf3e2a069197a11f477cca602b7bd6bad1cd330b3b0b0cf0c459451df3",
        "hex" : "483045022100bc37188dbbbe0baaeaac42854457e8b0c392cc862f04ea11befb9b1efa0b67fe022066ed74500608a8b4856fd044c0ff8144f6a8d253c9be0cb2c084e5b3c6711a400121031f4dd2bf3e2a069197a11f477cca602b7bd6bad1cd330b3b0b0cf0c459451df3"
      },
      "sequence" : 4294967295
    },
    {
      "txid" : "fec95562b63e293d3cc45673be80a849a33eb121f244c74a5456515b28c62b1b",
      "vout" : 0,
      "scriptSig" : {
        "asm" : "304402202f38075a682f42c2958cbee7248225f14810bfa6002da736c442ad398cb92d340220212feff02f239e6b855130221f513127b146f78cad3259e29e8144676ebe737c01 031f4dd2bf3e2a069197a11f477cca602b7bd6bad1cd330b3b0b0cf0c459451df3",
        "hex" : "47304402202f38075a682f42c2958cbee7248225f14810bfa6002da736c442ad398cb92d340220212feff02f239e6b855130221f513127b146f78cad3259e29e8144676ebe737c0121031f4dd2bf3e2a069197a11f477cca602b7bd6bad1cd330b3b0b0cf0c459451df3"
      },
      "sequence" : 4294967295
    },
    {
      "txid" : "a45cbbcdcea24e8990546b36831d99008aedac5aeed928afded3d509467ead3d",
      "vout" : 1,
      "scriptSig" : {
        "asm" : "3045022100f43c9833526daa19886450f9fa71aa069d2f84670dca0557cc02f0288f58754b0220700cf82b69c7571ae9b5915155cbafb84ef72d00a25a571b1a764aea0b56ddeb01 031f4dd2bf3e2a069197a11f477cca602b7bd6bad1cd330b3b0b0cf0c459451df3",
        "hex" : "483045022100f43c9833526daa19886450f9fa71aa069d2f84670dca0557cc02f0288f58754b0220700cf82b69c7571ae9b5915155cbafb84ef72d00a25a571b1a764aea0b56ddeb0121031f4dd2bf3e2a069197a11f477cca602b7bd6bad1cd330b3b0b0cf0c459451df3"
      },
      "sequence" : 4294967295
    },
    {
      "txid" : "ae765fae99520eb11a46e44fd21f616293801aab74367598d36eb204807c0e02",
      "vout" : 1,
      "scriptSig" : {
        "asm" : "3045022100f6c4088a357cd2a569fad02c0d0c09421c43be9d6444c3979e830f6a1d050f4d02206246b296faa3f0091f58e294ec2d58ecde68f831ee00b2b0317c3649a0b9ef3301 031f4dd2bf3e2a069197a11f477cca602b7bd6bad1cd330b3b0b0cf0c459451df3",
        "hex" : "483045022100f6c4088a357cd2a569fad02c0d0c09421c43be9d6444c3979e830f6a1d050f4d02206246b296faa3f0091f58e294ec2d58ecde68f831ee00b2b0317c3649a0b9ef330121031f4dd2bf3e2a069197a11f477cca602b7bd6bad1cd330b3b0b0cf0c459451df3"
      },
      "sequence" : 4294967295
    }
  ],
  "vout" : [
    {
      "value" : 0.00000000,
      "n" : 0,
      "scriptPubKey" : {
        "asm" : "OP_RETURN 4f41010006a09c01a09c01e0d403a09c01a09c01e0d40300",
        "hex" : "6a184f41010006a09c01a09c01e0d403a09c01a09c01e0d40300",
        "type" : "nulldata"
      }
    },
    {
      "value" : 0.00000600,
      "n" : 1,
      "scriptPubKey" : {
        "asm" : "OP_DUP OP_HASH160 0719edc9ab0e6964244c4d73f2f7cf1f2b812e5f OP_EQUALVERIFY OP_CHECKSIG",
        "hex" : "76a9140719edc9ab0e6964244c4d73f2f7cf1f2b812e5f88ac",
        "reqSigs" : 1,
        "type" : "pubkeyhash",
        "addresses" : [
          "mgAW5xxCzLf6uzu9464zoYJaRN77sFnSwY"
        ]
      }
    },
    {
      "value" : 0.00000600,
      "n" : 2,
      "scriptPubKey" : {
        "asm" : "OP_DUP OP_HASH160 0719edc9ab0e6964244c4d73f2f7cf1f2b812e5f OP_EQUALVERIFY OP_CHECKSIG",
        "hex" : "76a9140719edc9ab0e6964244c4d73f2f7cf1f2b812e5f88ac",
        "reqSigs" : 1,
        "type" : "pubkeyhash",
        "addresses" : [
          "mgAW5xxCzLf6uzu9464zoYJaRN77sFnSwY"
        ]
      }
    },
    {
      "value" : 0.00000600,
      "n" : 3,
      "scriptPubKey" : {
        "asm" : "OP_DUP OP_HASH160 0719edc9ab0e6964244c4d73f2f7cf1f2b812e5f OP_EQUALVERIFY OP_CHECKSIG",
        "hex" : "76a9140719edc9ab0e6964244c4d73f2f7cf1f2b812e5f88ac",
        "reqSigs" : 1,
        "type" : "pubkeyhash",
        "addresses" : [
          "mgAW5xxCzLf6uzu9464zoYJaRN77sFnSwY"
        ]
      }
    },
    {
      "value" : 0.00000600,
      "n" : 4,
      "scriptPubKey" : {
        "asm" : "OP_DUP OP_HASH160 24dfe7bcee33902093302dcd485d219a04d1aaba OP_EQUALVERIFY OP_CHECKSIG",
        "hex" : "76a91424dfe7bcee33902093302dcd485d219a04d1aaba88ac",
        "reqSigs" : 1,
        "type" : "pubkeyhash",
        "addresses" : [
          "misvrAgimeY2Pz1xWPK7aEjLx3EitRnabq"
        ]
      }
    },
    {
      "value" : 0.00000600,
      "n" : 5,
      "scriptPubKey" : {
        "asm" : "OP_DUP OP_HASH160 40d2dbf8198e80c0d0c19ed001a49076d19fe832 OP_EQUALVERIFY OP_CHECKSIG",
        "hex" : "76a91440d2dbf8198e80c0d0c19ed001a49076d19fe83288ac",
        "reqSigs" : 1,
        "type" : "pubkeyhash",
        "addresses" : [
          "mmRi967h2oGcH14Q1gqPgvePjUqRJEJCfH"
        ]
      }
    },
    {
      "value" : 0.00000600,
      "n" : 6,
      "scriptPubKey" : {
        "asm" : "OP_DUP OP_HASH160 a36418afb89ea7903c55c797af650dad72414704 OP_EQUALVERIFY OP_CHECKSIG",
        "hex" : "76a914a36418afb89ea7903c55c797af650dad7241470488ac",
        "reqSigs" : 1,
        "type" : "pubkeyhash",
        "addresses" : [
          "mvQtM9KrSFR7vCWHrbkV9XyVikwkNL74QE"
        ]
      }
    },
    {
      "value" : 0.00088800,
      "n" : 7,
      "scriptPubKey" : {
        "asm" : "OP_DUP OP_HASH160 1313a65b1ec5e9a6907819c536c644dc7a8e0341 OP_EQUALVERIFY OP_CHECKSIG",
        "hex" : "76a9141313a65b1ec5e9a6907819c536c644dc7a8e034188ac",
        "reqSigs" : 1,
        "type" : "pubkeyhash",
        "addresses" : [
          "mhFpfzXx6KXJxqmZha7bQo6g1C5LjdFpc5"
        ]
      }
    }
  ],
  "blockhash" : "00000000e87666689559f231f7d5874593446de681a74398c02b29cbd1eb5827",
  "confirmations" : 4042,
  "time" : 1456232012,
  "blocktime" : 1456232012
}
