{
  "hex" : "0100000001921b0bcf5739c389a93d0b2ab6ded57f8a6bf45c1bf72404e26a5d9e4079e5f1000000006a47304402200d431d9a4f666693dac145b2b1d2532d46bc3608c0032a865fc18e6e75902bc80220660b02039431e8a7f965201cd29ca24c9b5ba1e313a1c1b9c31cade9dce75ecf012103db80b229e1db82f1ed537317a4560506e394a77d96b8ed5afcab33dc3d79c0bbffffffff0358020000000000001976a9142d8838af0d7786ffbfec7136837d576af982ea8b88ac00000000000000000a6a08434302050100011058020000000000001976a9142d8838af0d7786ffbfec7136837d576af982ea8b88ac00000000",
  "txid" : "b50ddb740dae9b2b652dfe4db84e2d594e02ca9323adf3e614e1edd8b1ea6f1e",
  "version" : 1,
  "locktime" : 0,
  "vin" : [
    {
      "txid" : "f1e579409e5d6ae20424f71b5cf46b8a7fd5deb62a0b3da989c33957cf0b1b92",
      "vout" : 0,
      "scriptSig" : {
        "asm" : "304402200d431d9a4f666693dac145b2b1d2532d46bc3608c0032a865fc18e6e75902bc80220660b02039431e8a7f965201cd29ca24c9b5ba1e313a1c1b9c31cade9dce75ecf01 03db80b229e1db82f1ed537317a4560506e394a77d96b8ed5afcab33dc3d79c0bb",
        "hex" : "47304402200d431d9a4f666693dac145b2b1d2532d46bc3608c0032a865fc18e6e75902bc80220660b02039431e8a7f965201cd29ca24c9b5ba1e313a1c1b9c31cade9dce75ecf012103db80b229e1db82f1ed537317a4560506e394a77d96b8ed5afcab33dc3d79c0bb"
      },
      "sequence" : 4294967295
    }
  ],
  "vout" : [
    {
      "value" : 0.00000600,
      "n" : 0,
      "scriptPubKey" : {
        "asm" : "OP_DUP OP_HASH160 2d8838af0d7786ffbfec7136837d576af982ea8b OP_EQUALVERIFY OP_CHECKSIG",
        "hex" : "76a9142d8838af0d7786ffbfec7136837d576af982ea8b88ac",
        "reqSigs" : 1,
        "type" : "pubkeyhash",
        "addresses" : [
          "mjfhtWvHdEtz2JCaGuft9yYkQJgt3YKuQQ"
        ]
      }
    },
    {
      "value" : 0.00000000,
      "n" : 1,
      "scriptPubKey" : {
        "asm" : "OP_RETURN 4343020501000110",
        "hex" : "6a084343020501000110",
        "type" : "nulldata"
      }
    },
    {
      "value" : 0.00000600,
      "n" : 2,
      "scriptPubKey" : {
        "asm" : "OP_DUP OP_HASH160 2d8838af0d7786ffbfec7136837d576af982ea8b OP_EQUALVERIFY OP_CHECKSIG",
        "hex" : "76a9142d8838af0d7786ffbfec7136837d576af982ea8b88ac",
        "reqSigs" : 1,
        "type" : "pubkeyhash",
        "addresses" : [
          "mjfhtWvHdEtz2JCaGuft9yYkQJgt3YKuQQ"
        ]
      }
    }
  ],
  "blockhash" : "0000000000001521a7fd176803e2a7c3b327617319837144d6fa326fad56641e",
  "confirmations" : 8,
  "time" : 1456708516,
  "blocktime" : 1456708516
}