{
  "hex" : "01000000010000000000000000000000000000000000000000000000000000000000000000ffffffff040396000bffffffff04f60664230000000017a914349ef962198fcc875f45e786598272ecace9818d87f2d7dc010000000017a914349ef962198fcc875f45e786598272ecace9818d870000000000000000226a20000000000000000000000000000000000000000000000000589ea7610000000000000000000000000a6a08382c339b470a000000000000",
  "txid" : "bfab0b40e962f01a8341dec421e5183ab63a92faef4a6257d3021f0c3479b89e",
  "version" : 1,
  "locktime" : 0,
  "vin" : [
    {
      "coinbase" : "0396000b",
      "sequence" : 4294967295
    }
  ],
  "vout" : [
    {
      "value" : 5.93757942,
      "n" : 0,
      "scriptPubKey" : {
        "asm" : "OP_HASH160 349ef962198fcc875f45e786598272ecace9818d OP_EQUAL",
        "hex" : "a914349ef962198fcc875f45e786598272ecace9818d87",
        "reqSigs" : 1,
        "type" : "scripthash",
        "addresses" : [
          "2Mx3TZycg4XL5sQFfERBgNmg9Ma7uxowK9y"
        ]
      }
    },
    {
      "value" : 0.31250418,
      "n" : 1,
      "scriptPubKey" : {
        "asm" : "OP_HASH160 349ef962198fcc875f45e786598272ecace9818d OP_EQUAL",
        "hex" : "a914349ef962198fcc875f45e786598272ecace9818d87",
        "reqSigs" : 1,
        "type" : "scripthash",
        "addresses" : [
          "2Mx3TZycg4XL5sQFfERBgNmg9Ma7uxowK9y"
        ]
      }
    },
    {
      "value" : 0.00000000,
      "n" : 2,
      "scriptPubKey" : {
        "asm" : "OP_RETURN 000000000000000000000000000000000000000000000000589ea76100000000",
        "hex" : "6a20000000000000000000000000000000000000000000000000589ea76100000000",
        "type" : "nulldata"
      }
    },
    {
      "value" : 0.00000000,
      "n" : 3,
      "scriptPubKey" : {
        "asm" : "OP_RETURN 382c339b470a0000",
        "hex" : "6a08382c339b470a0000",
        "type" : "nulldata"
      }
    }
  ],
  "blockhash" : "00000000000036ffc3e2e3c247bab16e151be44a34207f822ffd7c7b879541cb",
  "confirmations" : 1061,
  "time" : 1456381016,
  "blocktime" : 1456381016
}