{
  "hex": "01000000014542daac5225389af5c5275f7a59f0663c797845b42dfe0e9edbf10d758d7232000000006a47304402207963aca7ee5e0de464e578c32da056a298eba4210d5c62438881f8c9d8e0020102207619dd4734066c09906009302aa39d821557e50ebf66106752ca985bd7a4ae0b0121034a750b912f603eb2bd06fc1489d79f096e5428a42d1efeb88909371e85b77327ffffffff02c2fb2a00000000001976a91447557afeabd2857467f9d0725b923dcf38271d1288aca0860100000000001976a91440d2dbf8198e80c0d0c19ed001a49076d19fe83288ac00000000",
  "txid": "dd63bce910677064dafd148d356a2b70b0839fcd99e946faf73a58d2974da1ba",
  "size": 225,
  "version": 1,
  "locktime": 0,
  "vin": [
    {
      "txid": "32728d750df1db9e0efe2db44578793c66f0597a5f27c5f59a382552acda4245",
      "vout": 0,
      "scriptSig": {
        "asm": "304402207963aca7ee5e0de464e578c32da056a298eba4210d5c62438881f8c9d8e0020102207619dd4734066c09906009302aa39d821557e50ebf66106752ca985bd7a4ae0b[ALL] 034a750b912f603eb2bd06fc1489d79f096e5428a42d1efeb88909371e85b77327",
        "hex": "47304402207963aca7ee5e0de464e578c32da056a298eba4210d5c62438881f8c9d8e0020102207619dd4734066c09906009302aa39d821557e50ebf66106752ca985bd7a4ae0b0121034a750b912f603eb2bd06fc1489d79f096e5428a42d1efeb88909371e85b77327"
      },
      "sequence": 4294967295
    }
  ],
  "vout": [
    {
      "value": 0.02816962,
      "n": 0,
      "scriptPubKey": {
        "asm": "OP_DUP OP_HASH160 47557afeabd2857467f9d0725b923dcf38271d12 OP_EQUALVERIFY OP_CHECKSIG",
        "hex": "76a91447557afeabd2857467f9d0725b923dcf38271d1288ac",
        "reqSigs": 1,
        "type": "pubkeyhash",
        "addresses": [
          "mn28fxcZWwedpetNS7747XJjUYNJJ9yiLc"
        ]
      }
    },
    {
      "value": 0.00100000,
      "n": 1,
      "scriptPubKey": {
        "asm": "OP_DUP OP_HASH160 40d2dbf8198e80c0d0c19ed001a49076d19fe832 OP_EQUALVERIFY OP_CHECKSIG",
        "hex": "76a91440d2dbf8198e80c0d0c19ed001a49076d19fe83288ac",
        "reqSigs": 1,
        "type": "pubkeyhash",
        "addresses": [
          "mmRi967h2oGcH14Q1gqPgvePjUqRJEJCfH"
        ]
      }
    }
  ],
  "blockhash": "00000000000030be776c194955b1a92ed5b5f4e8a95aa85d9fc18901874cde33",
  "confirmations": 44371,
  "time": 1456219733,
  "blocktime": 1456219733
}