{
  "hex": "0100000001f889106e79712d59189664a15bf599d35ddadefb140664d034772e00aa504d13010000006b483045022100f93e6e08db2b92dfb8be77d6f61f8ced209a17c80bbb5f4caf9383ccfb8d12cb02203b7f9c5f8a88d40c69e0ad61e83dd20ae173296aea503a8b3dbf851280bead1c01210217900f505201c81592826393ffe634e5878ae6c7a0aa778e8948a7c447778424ffffffff0358020000000000001976a914f7e86df7d48beb911d7e13d6b79a8b3c574f3fa688ac0000000000000000596a4c564f41010001c09a0c4d753d68747470733a2f2f6261726261646f732d77616c6c65742e73332d61702d6e6f727468656173742d312e616d617a6f6e6177732e636f6d2f66696e616e636561737365742d352e6a736f6e385d0100000000001976a9143a35285c351a7d4d5109ca8a81571f267963258288ac00000000",
  "txid": "e22598ba4e359ae2f079344226d619f977b0aca2a6247e54eb544885b15d2128",
  "size": 324,
  "version": 1,
  "locktime": 0,
  "vin": [
    {
      "txid": "134d50aa002e7734d0640614fbdeda5dd399f55ba1649618592d71796e1089f8",
      "vout": 1,
      "scriptSig": {
        "asm": "3045022100f93e6e08db2b92dfb8be77d6f61f8ced209a17c80bbb5f4caf9383ccfb8d12cb02203b7f9c5f8a88d40c69e0ad61e83dd20ae173296aea503a8b3dbf851280bead1c[ALL] 0217900f505201c81592826393ffe634e5878ae6c7a0aa778e8948a7c447778424",
        "hex": "483045022100f93e6e08db2b92dfb8be77d6f61f8ced209a17c80bbb5f4caf9383ccfb8d12cb02203b7f9c5f8a88d40c69e0ad61e83dd20ae173296aea503a8b3dbf851280bead1c01210217900f505201c81592826393ffe634e5878ae6c7a0aa778e8948a7c447778424"
      },
      "sequence": 4294967295
    }
  ],
  "vout": [
    {
      "value": 0.00000600,
      "n": 0,
      "scriptPubKey": {
        "asm": "OP_DUP OP_HASH160 f7e86df7d48beb911d7e13d6b79a8b3c574f3fa6 OP_EQUALVERIFY OP_CHECKSIG",
        "hex": "76a914f7e86df7d48beb911d7e13d6b79a8b3c574f3fa688ac",
        "reqSigs": 1,
        "type": "pubkeyhash",
        "addresses": [
          "n47mdvctxYx9GjJPNRDEtgAwsPmw9z4G35"
        ]
      }
    },
    {
      "value": 0.00000000,
      "n": 1,
      "scriptPubKey": {
        "asm": "OP_RETURN 4f41010001c09a0c4d753d68747470733a2f2f6261726261646f732d77616c6c65742e73332d61702d6e6f727468656173742d312e616d617a6f6e6177732e636f6d2f66696e616e636561737365742d352e6a736f6e",
        "hex": "6a4c564f41010001c09a0c4d753d68747470733a2f2f6261726261646f732d77616c6c65742e73332d61702d6e6f727468656173742d312e616d617a6f6e6177732e636f6d2f66696e616e636561737365742d352e6a736f6e",
        "type": "nulldata"
      }
    },
    {
      "value": 0.00089400,
      "n": 2,
      "scriptPubKey": {
        "asm": "OP_DUP OP_HASH160 3a35285c351a7d4d5109ca8a81571f2679632582 OP_EQUALVERIFY OP_CHECKSIG",
        "hex": "76a9143a35285c351a7d4d5109ca8a81571f267963258288ac",
        "reqSigs": 1,
        "type": "pubkeyhash",
        "addresses": [
          "mkpjAe1f2XUQZQuLZLZ6H32sWkE5tNvXa1"
        ]
      }
    }
  ],
  "blockhash": "000000000000307ac4047f7ed350a708295627259f1c01a95b1e564b36220b19",
  "confirmations": 44386,
  "time": 1456217674,
  "blocktime": 1456217674
}