{
  "hex": "0100000001ae5e8df6360475ac804e83ba528e4270f2e1a1f419ee93cb63da74bb9fe3b892000000006a473044022000ec4adb7617d71c18644ea119af1a3af6b1bf47d5a65068e1dd4c70c1a0928102202df3ca18c513ed6c9033db6dca5542697f73aa197c94d330ae62f5e9d927a2160121034a750b912f603eb2bd06fc1489d79f096e5428a42d1efeb88909371e85b77327ffffffff02f2e12d00000000001976a91447557afeabd2857467f9d0725b923dcf38271d1288aca0860100000000001976a914f7e86df7d48beb911d7e13d6b79a8b3c574f3fa688ac00000000",
  "txid": "e776762cf12c852f292d5ded4cef1e899c68cc876fe0eedf8ac5058c0b49e434",
  "size": 225,
  "version": 1,
  "locktime": 0,
  "vin": [
    {
      "txid": "92b8e39fbb74da63cb93ee19f4a1e1f270428e52ba834e80ac750436f68d5eae",
      "vout": 0,
      "scriptSig": {
        "asm": "3044022000ec4adb7617d71c18644ea119af1a3af6b1bf47d5a65068e1dd4c70c1a0928102202df3ca18c513ed6c9033db6dca5542697f73aa197c94d330ae62f5e9d927a216[ALL] 034a750b912f603eb2bd06fc1489d79f096e5428a42d1efeb88909371e85b77327",
        "hex": "473044022000ec4adb7617d71c18644ea119af1a3af6b1bf47d5a65068e1dd4c70c1a0928102202df3ca18c513ed6c9033db6dca5542697f73aa197c94d330ae62f5e9d927a2160121034a750b912f603eb2bd06fc1489d79f096e5428a42d1efeb88909371e85b77327"
      },
      "sequence": 4294967295
    }
  ],
  "vout": [
    {
      "value": 0.03006962,
      "n": 0,
      "scriptPubKey": {
        "asm": "OP_DUP OP_HASH160 47557afeabd2857467f9d0725b923dcf38271d12 OP_EQUALVERIFY OP_CHECKSIG",
        "hex": "76a91447557afeabd2857467f9d0725b923dcf38271d1288ac",
        "reqSigs": 1,
        "type": "pubkeyhash",
        "addresses": [
          "mn28fxcZWwedpetNS7747XJjUYNJJ9yiLc"
        ]
      }
    },
    {
      "value": 0.00100000,
      "n": 1,
      "scriptPubKey": {
        "asm": "OP_DUP OP_HASH160 f7e86df7d48beb911d7e13d6b79a8b3c574f3fa6 OP_EQUALVERIFY OP_CHECKSIG",
        "hex": "76a914f7e86df7d48beb911d7e13d6b79a8b3c574f3fa688ac",
        "reqSigs": 1,
        "type": "pubkeyhash",
        "addresses": [
          "n47mdvctxYx9GjJPNRDEtgAwsPmw9z4G35"
        ]
      }
    }
  ],
  "blockhash": "00000000000664f8cee04f25fbbd57f8a436cdd7078f02fbe4e89a0bf2a0aa7a",
  "confirmations": 50000,
  "time": 1455781498,
  "blocktime": 1455781498
}