{
  "hex": "010000000173419d5f11b2c83836361600ddb5db2915fbc6278a793afb0aa881d34587772f010000006b483045022100bb6b65c33c08f131e15ee05646df91e5294571f6ea5622878ef9f7c74db13980022067e1666da9b5a1877c7a87e071e753141e377d95399de8fbbb5d853d9e2ea6030121032c5fb391ff812b2cf3843968824319a05153caf0c875bf7c48e13e4d899b7969ffffffff0358020000000000001976a9141313a65b1ec5e9a6907819c536c644dc7a8e034188ac0000000000000000596a4c564f41010001a09c014d753d68747470733a2f2f6261726261646f732d77616c6c65742e73332d61702d6e6f727468656173742d312e616d617a6f6e6177732e636f6d2f66696e616e636561737365742d362e6a736f6e385d0100000000001976a91424dfe7bcee33902093302dcd485d219a04d1aaba88ac00000000",
  "txid": "ee2ebc222465c0cc3605ad71494b67219732234fb176d248ac7dfe6bc9850f7a",
  "size": 324,
  "version": 1,
  "locktime": 0,
  "vin": [
    {
      "txid": "2f778745d381a80afb3a798a27c6fb1529dbb5dd0016363638c8b2115f9d4173",
      "vout": 1,
      "scriptSig": {
        "asm": "3045022100bb6b65c33c08f131e15ee05646df91e5294571f6ea5622878ef9f7c74db13980022067e1666da9b5a1877c7a87e071e753141e377d95399de8fbbb5d853d9e2ea603[ALL] 032c5fb391ff812b2cf3843968824319a05153caf0c875bf7c48e13e4d899b7969",
        "hex": "483045022100bb6b65c33c08f131e15ee05646df91e5294571f6ea5622878ef9f7c74db13980022067e1666da9b5a1877c7a87e071e753141e377d95399de8fbbb5d853d9e2ea6030121032c5fb391ff812b2cf3843968824319a05153caf0c875bf7c48e13e4d899b7969"
      },
      "sequence": 4294967295
    }
  ],
  "vout": [
    {
      "value": 0.00000600,
      "n": 0,
      "scriptPubKey": {
        "asm": "OP_DUP OP_HASH160 1313a65b1ec5e9a6907819c536c644dc7a8e0341 OP_EQUALVERIFY OP_CHECKSIG",
        "hex": "76a9141313a65b1ec5e9a6907819c536c644dc7a8e034188ac",
        "reqSigs": 1,
        "type": "pubkeyhash",
        "addresses": [
          "mhFpfzXx6KXJxqmZha7bQo6g1C5LjdFpc5"
        ]
      }
    },
    {
      "value": 0.00000000,
      "n": 1,
      "scriptPubKey": {
        "asm": "OP_RETURN 4f41010001a09c014d753d68747470733a2f2f6261726261646f732d77616c6c65742e73332d61702d6e6f727468656173742d312e616d617a6f6e6177732e636f6d2f66696e616e636561737365742d362e6a736f6e",
        "hex": "6a4c564f41010001a09c014d753d68747470733a2f2f6261726261646f732d77616c6c65742e73332d61702d6e6f727468656173742d312e616d617a6f6e6177732e636f6d2f66696e616e636561737365742d362e6a736f6e",
        "type": "nulldata"
      }
    },
    {
      "value": 0.00089400,
      "n": 2,
      "scriptPubKey": {
        "asm": "OP_DUP OP_HASH160 24dfe7bcee33902093302dcd485d219a04d1aaba OP_EQUALVERIFY OP_CHECKSIG",
        "hex": "76a91424dfe7bcee33902093302dcd485d219a04d1aaba88ac",
        "reqSigs": 1,
        "type": "pubkeyhash",
        "addresses": [
          "misvrAgimeY2Pz1xWPK7aEjLx3EitRnabq"
        ]
      }
    }
  ],
  "blockhash": "00000000000007b3ee36459d189c7ebecc1ed085652752f039bb3653129ef9d7",
  "confirmations": 44359,
  "time": 1456223302,
  "blocktime": 1456223302
}