{
  "hex" : "0100000001a6682d12040761896719cab3845b1aa320e1b652038b33bf80f20abe5aec857e1f0000006b483045022100d73d87253548973e2e5c0e5757ecbb148710bed61a4afd16996c3d8a026caf25022071873692163dbc8617c45e42e6ea4ebe04c5115020ff85753b9d86f1bf2403fc0121024a7cab261253585e4b60174115f875890e196d5f41975169c8f83e2f0241b7a0ffffffff0238180000000000001976a9142d8838af0d7786ffbfec7136837d576af982ea8b88ac58020000000000001976a9141ea1b9194abd07be423d0b8d7d3b9e7028fb438288ac00000000",
  "txid" : "f1e579409e5d6ae20424f71b5cf46b8a7fd5deb62a0b3da989c33957cf0b1b92",
  "version" : 1,
  "locktime" : 0,
  "vin" : [
    {
      "txid" : "7e85ec5abe0af280bf338b0352b6e120a31a5b84b3ca196789610704122d68a6",
      "vout" : 31,
      "scriptSig" : {
        "asm" : "3045022100d73d87253548973e2e5c0e5757ecbb148710bed61a4afd16996c3d8a026caf25022071873692163dbc8617c45e42e6ea4ebe04c5115020ff85753b9d86f1bf2403fc01 024a7cab261253585e4b60174115f875890e196d5f41975169c8f83e2f0241b7a0",
        "hex" : "483045022100d73d87253548973e2e5c0e5757ecbb148710bed61a4afd16996c3d8a026caf25022071873692163dbc8617c45e42e6ea4ebe04c5115020ff85753b9d86f1bf2403fc0121024a7cab261253585e4b60174115f875890e196d5f41975169c8f83e2f0241b7a0"
      },
      "sequence" : 4294967295
    }
  ],
  "vout" : [
    {
      "value" : 0.00006200,
      "n" : 0,
      "scriptPubKey" : {
        "asm" : "OP_DUP OP_HASH160 2d8838af0d7786ffbfec7136837d576af982ea8b OP_EQUALVERIFY OP_CHECKSIG",
        "hex" : "76a9142d8838af0d7786ffbfec7136837d576af982ea8b88ac",
        "reqSigs" : 1,
        "type" : "pubkeyhash",
        "addresses" : [
          "mjfhtWvHdEtz2JCaGuft9yYkQJgt3YKuQQ"
        ]
      }
    },
    {
      "value" : 0.00000600,
      "n" : 1,
      "scriptPubKey" : {
        "asm" : "OP_DUP OP_HASH160 1ea1b9194abd07be423d0b8d7d3b9e7028fb4382 OP_EQUALVERIFY OP_CHECKSIG",
        "hex" : "76a9141ea1b9194abd07be423d0b8d7d3b9e7028fb438288ac",
        "reqSigs" : 1,
        "type" : "pubkeyhash",
        "addresses" : [
          "miJvJXHH61uLVo1V4nZEdb4MBPDvDoPRPD"
        ]
      }
    }
  ],
  "blockhash" : "0000000000001521a7fd176803e2a7c3b327617319837144d6fa326fad56641e",
  "confirmations" : 8,
  "time" : 1456708516,
  "blocktime" : 1456708516
}