{
  "hex": "0100000001baa14d97d2583af7fa46e999cd9f83b0702b6a358d14fdda64706710e9bc63dd010000006b483045022100ec40454fcfa908119058deca8d8b6496cec4f9d4becb2ec74a2fee3a364551a102207ca7ab4c909e3a2f739fba66016c417ddf8dc00ad552dfd3dad57266c5e51b56012103366850626c511f069564647b59d74e88140df53086b92bc632f5343e411c2cb9ffffffff0358020000000000001976a9141313a65b1ec5e9a6907819c536c644dc7a8e034188ac0000000000000000596a4c564f41010001a09c014d753d68747470733a2f2f6261726261646f732d77616c6c65742e73332d61702d6e6f727468656173742d312e616d617a6f6e6177732e636f6d2f66696e616e636561737365742d362e6a736f6e385d0100000000001976a91440d2dbf8198e80c0d0c19ed001a49076d19fe83288ac00000000",
  "txid": "f75aa126d8f831e81e0999d35458b2aa236cdfe305cc85e32a22882626a34f85",
  "size": 324,
  "version": 1,
  "locktime": 0,
  "vin": [
    {
      "txid": "dd63bce910677064dafd148d356a2b70b0839fcd99e946faf73a58d2974da1ba",
      "vout": 1,
      "scriptSig": {
        "asm": "3045022100ec40454fcfa908119058deca8d8b6496cec4f9d4becb2ec74a2fee3a364551a102207ca7ab4c909e3a2f739fba66016c417ddf8dc00ad552dfd3dad57266c5e51b56[ALL] 03366850626c511f069564647b59d74e88140df53086b92bc632f5343e411c2cb9",
        "hex": "483045022100ec40454fcfa908119058deca8d8b6496cec4f9d4becb2ec74a2fee3a364551a102207ca7ab4c909e3a2f739fba66016c417ddf8dc00ad552dfd3dad57266c5e51b56012103366850626c511f069564647b59d74e88140df53086b92bc632f5343e411c2cb9"
      },
      "sequence": 4294967295
    }
  ],
  "vout": [
    {
      "value": 0.00000600,
      "n": 0,
      "scriptPubKey": {
        "asm": "OP_DUP OP_HASH160 1313a65b1ec5e9a6907819c536c644dc7a8e0341 OP_EQUALVERIFY OP_CHECKSIG",
        "hex": "76a9141313a65b1ec5e9a6907819c536c644dc7a8e034188ac",
        "reqSigs": 1,
        "type": "pubkeyhash",
        "addresses": [
          "mhFpfzXx6KXJxqmZha7bQo6g1C5LjdFpc5"
        ]
      }
    },
    {
      "value": 0.00000000,
      "n": 1,
      "scriptPubKey": {
        "asm": "OP_RETURN 4f41010001a09c014d753d68747470733a2f2f6261726261646f732d77616c6c65742e73332d61702d6e6f727468656173742d312e616d617a6f6e6177732e636f6d2f66696e616e636561737365742d362e6a736f6e",
        "hex": "6a4c564f41010001a09c014d753d68747470733a2f2f6261726261646f732d77616c6c65742e73332d61702d6e6f727468656173742d312e616d617a6f6e6177732e636f6d2f66696e616e636561737365742d362e6a736f6e",
        "type": "nulldata"
      }
    },
    {
      "value": 0.00089400,
      "n": 2,
      "scriptPubKey": {
        "asm": "OP_DUP OP_HASH160 40d2dbf8198e80c0d0c19ed001a49076d19fe832 OP_EQUALVERIFY OP_CHECKSIG",
        "hex": "76a91440d2dbf8198e80c0d0c19ed001a49076d19fe83288ac",
        "reqSigs": 1,
        "type": "pubkeyhash",
        "addresses": [
          "mmRi967h2oGcH14Q1gqPgvePjUqRJEJCfH"
        ]
      }
    }
  ],
  "blockhash": "00000000000007b3ee36459d189c7ebecc1ed085652752f039bb3653129ef9d7",
  "confirmations": 44359,
  "time": 1456223302,
  "blocktime": 1456223302
}