{
  "hex": "0100000001f793594d308c5f4e5f76ba782133c5823b060955569faffc9566f4be923d6c66000000006b483045022100e924be9d4d709c569bd8ab3f3ed7885d94dd33f31e848290793a138fd2467872022077dcc7ea9a2dfcba55a74f5aae3e68db5be93e9f4eb7f545331cfadc1690ef4b012102271677b29ca763a6bea243df0359a984761c6fd76104afa8697bc76c68bf9030ffffffff0358020000000000001976a914f7e86df7d48beb911d7e13d6b79a8b3c574f3fa688ac0000000000000000596a4c564f41010001a0c21e4d753d68747470733a2f2f6261726261646f732d77616c6c65742e73332d61702d6e6f727468656173742d312e616d617a6f6e6177732e636f6d2f66696e616e636561737365742d352e6a736f6eb8240000000000001976a914ac2f92bc736fb7e5c3614f685c26d788dc2c772088ac00000000",
  "txid": "fda58ba15673394731c8ca4d17e414d25d122283439e8219a6cee6435fecddf9",
  "size": 324,
  "version": 1,
  "locktime": 0,
  "vin": [
    {
      "txid": "666c3d92bef46695fcaf9f565509063b82c5332178ba765f4e5f8c304d5993f7",
      "vout": 0,
      "scriptSig": {
        "asm": "3045022100e924be9d4d709c569bd8ab3f3ed7885d94dd33f31e848290793a138fd2467872022077dcc7ea9a2dfcba55a74f5aae3e68db5be93e9f4eb7f545331cfadc1690ef4b[ALL] 02271677b29ca763a6bea243df0359a984761c6fd76104afa8697bc76c68bf9030",
        "hex": "483045022100e924be9d4d709c569bd8ab3f3ed7885d94dd33f31e848290793a138fd2467872022077dcc7ea9a2dfcba55a74f5aae3e68db5be93e9f4eb7f545331cfadc1690ef4b012102271677b29ca763a6bea243df0359a984761c6fd76104afa8697bc76c68bf9030"
      },
      "sequence": 4294967295
    }
  ],
  "vout": [
    {
      "value": 0.00000600,
      "n": 0,
      "scriptPubKey": {
        "asm": "OP_DUP OP_HASH160 f7e86df7d48beb911d7e13d6b79a8b3c574f3fa6 OP_EQUALVERIFY OP_CHECKSIG",
        "hex": "76a914f7e86df7d48beb911d7e13d6b79a8b3c574f3fa688ac",
        "reqSigs": 1,
        "type": "pubkeyhash",
        "addresses": [
          "n47mdvctxYx9GjJPNRDEtgAwsPmw9z4G35"
        ]
      }
    },
    {
      "value": 0.00000000,
      "n": 1,
      "scriptPubKey": {
        "asm": "OP_RETURN 4f41010001a0c21e4d753d68747470733a2f2f6261726261646f732d77616c6c65742e73332d61702d6e6f727468656173742d312e616d617a6f6e6177732e636f6d2f66696e616e636561737365742d352e6a736f6e",
        "hex": "6a4c564f41010001a0c21e4d753d68747470733a2f2f6261726261646f732d77616c6c65742e73332d61702d6e6f727468656173742d312e616d617a6f6e6177732e636f6d2f66696e616e636561737365742d352e6a736f6e",
        "type": "nulldata"
      }
    },
    {
      "value": 0.00009400,
      "n": 2,
      "scriptPubKey": {
        "asm": "OP_DUP OP_HASH160 ac2f92bc736fb7e5c3614f685c26d788dc2c7720 OP_EQUALVERIFY OP_CHECKSIG",
        "hex": "76a914ac2f92bc736fb7e5c3614f685c26d788dc2c772088ac",
        "reqSigs": 1,
        "type": "pubkeyhash",
        "addresses": [
          "mwDPWVV2S1YyjKGVuZpDGKQLtvaxJUo8Ym"
        ]
      }
    }
  ],
  "blockhash": "000000000000225c6874a66e79638104863b8f8862ba3ed4a2df4f164a78ec19",
  "confirmations": 44801,
  "time": 1456100908,
  "blocktime": 1456100908
}