{
  "hex" : "0100000001a59037c5a3e9d920b720e98ab1118c3a555b7875efa9d542177318a1e9422c0d010000006a47304402203be779be361ad79b89771e0b1eb7ac250804d8806c4601b9e912217bfbbdfc0d02206547d422257ba34423a1b4292a056f0c57ae5a368595eb70552cdb5938ee6f9a012103b4aed31422355f0399cae188510bd20bef0db077fe13eff4875baf7c84e86af7ffffffff0358020000000000001976a9141313a65b1ec5e9a6907819c536c644dc7a8e034188ac0000000000000000596a4c564f41010001e0d4034d753d68747470733a2f2f6261726261646f732d77616c6c65742e73332d61702d6e6f727468656173742d312e616d617a6f6e6177732e636f6d2f66696e616e636561737365742d362e6a736f6e385d0100000000001976a914a36418afb89ea7903c55c797af650dad7241470488ac00000000",
  "txid" : "fec95562b63e293d3cc45673be80a849a33eb121f244c74a5456515b28c62b1b",
  "version" : 1,
  "locktime" : 0,
  "vin" : [
    {
      "txid" : "0d2c42e9a118731742d5a9ef75785b553a8c11b18ae920b720d9e9a3c53790a5",
      "vout" : 1,
      "scriptSig" : {
        "asm" : "304402203be779be361ad79b89771e0b1eb7ac250804d8806c4601b9e912217bfbbdfc0d02206547d422257ba34423a1b4292a056f0c57ae5a368595eb70552cdb5938ee6f9a01 03b4aed31422355f0399cae188510bd20bef0db077fe13eff4875baf7c84e86af7",
        "hex" : "47304402203be779be361ad79b89771e0b1eb7ac250804d8806c4601b9e912217bfbbdfc0d02206547d422257ba34423a1b4292a056f0c57ae5a368595eb70552cdb5938ee6f9a012103b4aed31422355f0399cae188510bd20bef0db077fe13eff4875baf7c84e86af7"
      },
      "sequence" : 4294967295
    }
  ],
  "vout" : [
    {
      "value" : 0.00000600,
      "n" : 0,
      "scriptPubKey" : {
        "asm" : "OP_DUP OP_HASH160 1313a65b1ec5e9a6907819c536c644dc7a8e0341 OP_EQUALVERIFY OP_CHECKSIG",
        "hex" : "76a9141313a65b1ec5e9a6907819c536c644dc7a8e034188ac",
        "reqSigs" : 1,
        "type" : "pubkeyhash",
        "addresses" : [
          "mhFpfzXx6KXJxqmZha7bQo6g1C5LjdFpc5"
        ]
      }
    },
    {
      "value" : 0.00000000,
      "n" : 1,
      "scriptPubKey" : {
        "asm" : "OP_RETURN 4f41010001e0d4034d753d68747470733a2f2f6261726261646f732d77616c6c65742e73332d61702d6e6f727468656173742d312e616d617a6f6e6177732e636f6d2f66696e616e636561737365742d362e6a736f6e",
        "hex" : "6a4c564f41010001e0d4034d753d68747470733a2f2f6261726261646f732d77616c6c65742e73332d61702d6e6f727468656173742d312e616d617a6f6e6177732e636f6d2f66696e616e636561737365742d362e6a736f6e",
        "type" : "nonstandard"
      }
    },
    {
      "value" : 0.00089400,
      "n" : 2,
      "scriptPubKey" : {
        "asm" : "OP_DUP OP_HASH160 a36418afb89ea7903c55c797af650dad72414704 OP_EQUALVERIFY OP_CHECKSIG",
        "hex" : "76a914a36418afb89ea7903c55c797af650dad7241470488ac",
        "reqSigs" : 1,
        "type" : "pubkeyhash",
        "addresses" : [
          "mvQtM9KrSFR7vCWHrbkV9XyVikwkNL74QE"
        ]
      }
    }
  ],
  "blockhash" : "0000000000002ad109d40b79bd60ce0059e63565e3c22d88fa3a77a8f6851ec6",
  "confirmations" : 4064,
  "time" : 1456225244,
  "blocktime" : 1456225244
}
