{
  "hex": "0100000001fc4349bc304f5f615e751a101011e171af8f0d559b99c2da9d9baa22b5ed116f010000006a47304402202f1c39dc53cfd94365d80ab8062fda9cd3b4b8d8aa49eb39776d20876281abd102201a27c2990341b881a876b3779394e7cc29e4cf3f5fa45493cf624fdec8691586012102d4f2b3c99b7c106e9e6f55ff614d68455c2b73a59914eac6985a3e3254c85474ffffffff03182e0000000000001976a914b39445a1122b3a51f2f8d50892a2d300078e9b1488ac182e0000000000001976a91456e7dd1845b300dde4ac1c07ef8083528c3558f188ac0000000000000000666a4c634f4101000206065b753d68747470733a2f2f636f6e677265636861696e2d6f6b756d7572612d6465762e73332d61702d6e6f727468656173742d312e616d617a6f6e6177732e636f6d2f70726f64756374696f6e2f70726f6a6563742f352e6a736f6e00000000",
  "txid": "ff9f231f0a582639ea73bebaf60fd9f08762201ff9760f02ae35042a85e1b298",
  "hash": "ff9f231f0a582639ea73bebaf60fd9f08762201ff9760f02ae35042a85e1b298",
  "size": 336,
  "vsize": 336,
  "version": 1,
  "locktime": 0,
  "vin": [
    {
      "txid": "6f11edb522aa9b9ddac2999b550d8faf71e11110101a755e615f4f30bc4943fc",
      "vout": 1,
      "scriptSig": {
        "asm": "304402202f1c39dc53cfd94365d80ab8062fda9cd3b4b8d8aa49eb39776d20876281abd102201a27c2990341b881a876b3779394e7cc29e4cf3f5fa45493cf624fdec8691586[ALL] 02d4f2b3c99b7c106e9e6f55ff614d68455c2b73a59914eac6985a3e3254c85474",
        "hex": "47304402202f1c39dc53cfd94365d80ab8062fda9cd3b4b8d8aa49eb39776d20876281abd102201a27c2990341b881a876b3779394e7cc29e4cf3f5fa45493cf624fdec8691586012102d4f2b3c99b7c106e9e6f55ff614d68455c2b73a59914eac6985a3e3254c85474"
      },
      "sequence": 4294967295
    }
  ],
  "vout": [
    {
      "value": 0.00011800,
      "n": 0,
      "scriptPubKey": {
        "asm": "OP_DUP OP_HASH160 b39445a1122b3a51f2f8d50892a2d300078e9b14 OP_EQUALVERIFY OP_CHECKSIG",
        "hex": "76a914b39445a1122b3a51f2f8d50892a2d300078e9b1488ac",
        "reqSigs": 1,
        "type": "pubkeyhash",
        "addresses": [
          "mwtUsWY8SHfW3HMU13Jw8aF8hje7PW2Dyh"
        ]
      }
    },
    {
      "value": 0.00011800,
      "n": 1,
      "scriptPubKey": {
        "asm": "OP_DUP OP_HASH160 56e7dd1845b300dde4ac1c07ef8083528c3558f1 OP_EQUALVERIFY OP_CHECKSIG",
        "hex": "76a91456e7dd1845b300dde4ac1c07ef8083528c3558f188ac",
        "reqSigs": 1,
        "type": "pubkeyhash",
        "addresses": [
          "moSUAijckb6hT8NSnSbzfKXHtP2bDZGx2P"
        ]
      }
    },
    {
      "value": 0.00000000,
      "n": 2,
      "scriptPubKey": {
        "asm": "OP_RETURN 4f4101000206065b753d68747470733a2f2f636f6e677265636861696e2d6f6b756d7572612d6465762e73332d61702d6e6f727468656173742d312e616d617a6f6e6177732e636f6d2f70726f64756374696f6e2f70726f6a6563742f352e6a736f6e",
        "hex": "6a4c634f4101000206065b753d68747470733a2f2f636f6e677265636861696e2d6f6b756d7572612d6465762e73332d61702d6e6f727468656173742d312e616d617a6f6e6177732e636f6d2f70726f64756374696f6e2f70726f6a6563742f352e6a736f6e",
        "type": "nulldata"
      }
    }
  ],
  "blockhash": "00000000378d88dae3cda1320106248c9690a0599fdf41fb8dcb2d60588abdee",
  "confirmations": 13382,
  "time": 1504846577,
  "blocktime": 1504846577
}